08955549459+Brf Fiskevårdsområdesfören Indigo                                       TVÄRREDSLUND 219            52394+TVÄRRED                  SE0000+00000000+BAS00000000+BAS20150113+BAS20121214+00000000+                                    20121203+Brf Fiskevårdsområdesfören Indigo               20121206+0000000000000+0000+01018000000000000+ 00000000+01420121217+ 00000000+120121217+     00000000+    00000000+41910BAS20130114+ 20150121+234831+HFR BAS 0001+0001+ACME8BRFFISKEVÅ000000+ 200000000+  20121217+000000+
05525984570+Fshd Breareds Prästgården AB                                            SLÄTTÖ LARSBO               33010+BREDARYD                 SE0070+02223181+PRV00000000+BAS20150117+BAS20140827+00000000+                                    20140703+Fshd Breareds Prästgården AB                    20140703+0000000050000+0000+08082100000000000+ 00000000+00420140714+ 00000000+120140811+     00000000+    00000000+   49BAS20140811+ 20140901+234803+PRV BAS 0001+0001+ACME7FSHDBREARE000000+ 200000000+  20140811+000000+
09885517145+Urrutia Suleimantrading &                                               TORGGATAN 4                 53131+LIDKÖPING                SE0418+00028105+HFR19980114+BAS20010819+BAS19951029+00000000+                                    19890425+Urrutia Suleimantrading &                       19890301+0000000000000+0000+12128200000000000+ 00000000+00419890425+ 00000000+119890614+     00000000+    00000000+21931HFR20010403+ 20011004+010853+HFR BAS 0001+0001+ACME5URRUTIASUL000000+ 200000000+  19960211+000000+
07375279895+Jörnevi 311-1 Logistik                                                  HÄSTSKOVÄGEN 24             13555+TYRESÖ                   SE0000+00000000+BAS00000000+BAS20100102+BAS20111015+00000000+                                    19990127+Jörnevi 311-1 Logistik                          19981104+0000000000000+0000+      00000000000+ 00000000+00419990127+ 00000000+920100310+     00000000+    00000000+41910BAS20111121+ 20111121+235957+BAS BAS 0005+0000+ACME4JÖRNEVI311000000+ N20100208+ 820100310+000000+
07891053881+Solitum Hälsopartner Alltjänst                                          VÄTTERUDDSVÄGEN 42          94473+PITEÅ                    SE0070+06428855+BAS20071003+BAS20070120+BAS20100308+00000000+                                    20020129+Solitum Hälsopartner Alltjänst                  20020101+0000000000000+0000+12128300000000000+ 00000000+00420020221+ 00000000+120020221+     00000000+    00000000+41910BAS20020221+ 20100414+235009+HFR BAS 0001+0001+ACME9SOLITUMHÄL000000+ 420020110+  20020221+000000+
07422616198+Askersunds Catarina Storesampler                                        EMELIAS VÄG 3               31271+SKUMMESLÖVSSTRAND        SE0000+00000000+BAS00000000+BAS20150421+   00000000+00000000+                                    20150427+Askersunds Catarina Storesampler                20150416+0000000000000+0000+17178500000000000+ 00000000+09420150427+ 00000000+000000000+     00000000+    00000000+   62BAS20150427+ 20150427+234907+BAS BAS 0001+0000+ACME4ASKERSUNDS000000+  00000000+  20150427+000000+
05965722837+Ulla Örstadius Göran                                                    LYCKE LÖVSTA                67192+ARVIKA                   SE0000+00000000+BAS20011101+BAS20020901+BAS20100217+00000000+                                    19940531+Ulla Örstadius Göran                            19820525+0000000000000+0000+06068000000000000+ 00000000+00419900425+ 00000000+920030219+     00000000+    00000000+41910BAS20030219+ 20100324+234840+HFR BAS 0001+0000+ACME3ULLAÖRSTAD000000+ E20030121+ 820030219+000000+
05606588472+Lantbruk Karlsson &                                                     PERSBERG BJÖRKSTÄLLET       68240+FILIPSTAD                SE0073+09155063+BAS19880330+BAS20150623+BAS20100308+00000000+                                    19880330+Lantbruk Karlsson &                             19880201+0000000000000+0000+14146300000000000+ 00000000+00419880330+ 00000000+119901102+     00000000+    00000000+41910BAS20150629+ 20150629+234628+HFR BAS 0001+0001+ACME9LANTBRUKKA000000+ 419940610+  19960211+000000+
05627753253+Aspelund Åbäcksnäs Ergonomus AB                                         VIOLVÄGEN 13                34151+LAGAN                    SE0730+00201060+PRV20101013+BAS20120307+BAS20090405+00000000+                                    00000000+Aspelund Åbäcksnäs Ergonomus AB                 19830324+0000000100000+0000+14141500000000000+ 00000000+00420120820+ 00000000+920120820+NFDA 20120808+FDI 20120523+   49BAS20120820+ 20120820+235647+KONVBAS 0001+0000+ACME6ASPELUNDÅB201204+ U20120809+ 820120820+000000+
09576519350+Fredrik Bödagruppen Franc                                               PONNYGATAN 2                26258+ÄNGELHOLM                SE0000+00000000+BAS00000000+BAS20150117+BAS20141216+00000000+                                    20141204+Fredrik Bödagruppen Franc                       20141211+0000000000000+0000+19198000000000000+ 00000000+00420141222+ 00000000+120150316+     00000000+    00000000+41910BAS20150316+ 20150316+235002+HFR BAS 0001+0001+ACME2FREDRIKBÖD000000+ 400000000+  20150316+000000+
05294412563+Expressbud Anne-X Rorcul                                                LINDQVISTS BACKE 5          27294+SIMRISHAMN               SE0000+00000000+BAS20011101+BAS20130103+BAS20100216+00000000+                                    00000000+Expressbud Anne-X Rorcul                        19830901+0000000000000+0000+21218400000000000+ 00000000+00419851116+ 00000000+920121224+     00000000+    00000000+41910BAS20121224+ 20130107+235230+HFR BAS 0002+0000+ACME8EXPRESSBUD000000+ E20121211+ 820121224+000000+
04927700114+Malga Nilsson &                                                         ÖVRE KÄRR LILLE HAGE        45693+HUNNEBOSTRAND            SE0073+04413305+BAS00000000+BAS20110122+BAS20100308+00000000+                                    20040317+Malga Nilsson &                                 20040301+0000000000000+0000+01018000000000000+ 00000000+00420040414+ 00000000+120040513+     00000000+    00000000+41910BAS20040513+ 20110228+235632+HFR BAS 0001+0001+ACME2MALGANILSS000000+ 400000000+  20040513+000000+
06777139293+& Al Thomas                                                             LINDHOLM RINGMUREN          63504+ESKILSTUNA               SE0070+08220793+BAS20070228+BAS20140902+BAS20070814+00000000+                                    20070212+& Al Thomas                                     20070101+0000000000000+0000+12128300000000000+ 00000000+00420070214+ 00000000+920121217+     00000000+    00000000+41910BAS20121217+ 20140908+234717+HFR BAS 0001+0000+ACME4&ALTHOMAS 000000+ P20121204+ 820121217+000000+
05846192911+Linnea Lilja Påryds AB                                                  ULKERÖD 15                  45596+HEDEKAS                  SE0000+00000000+PRV00000000+BAS20150526+BAS20131023+00000000+                                    20130815+Linnea Lilja Påryds AB                          20130815+0000000050000+0000+01019100000000000+ 00000000+00420130826+ 00000000+120130902+     00000000+    00000000+   49BAS20130902+ 20150601+234858+PRV BAS 0001+0001+ACME3LINNEALILJ000000+ 200000000+  20130902+000000+
07812243322+Kitsero Swadesh Träslöjd            Kitsero Swadesh Träslöjd            KVARNFORS 64                91891+SÄVAR                    SE0031+00462414+BAS00000000+BAS20061128+BAS19950515+00000000+                                    19930602+Kitsero Swadesh Träslöjd                        19930428+0000000000000+0000+14148000000000000+ 00000000+00420131007+ 00000000+920100523+ LIA 20120319+LI  20061208+   51BAS20131007+ 20131007+235436+BAS BAS 0001+0000+ACME6KITSEROSWA000000+ 100000000+ 820131007+000000+
06001153359+Barrio Service Programförlag        Barrio Service Programförlag        LILLA LÖNNEKÄRR KVICKETORPET45693+HUNNEBOSTRAND            SE0000+00000000+BAS00000000+BAS20150310+BAS20100217+00000000+                                    20000530+Barrio Service Programförlag                    20000523+0000000000000+0000+24248200000000000+ 00000000+00420000613+ 00000000+920030416+     00000000+    00000000+41910BAS20131021+ 20150316+234725+HFR BAS 0001+0000+ACME2BARRIOSERV000000+ U20030321+ 820030416+000000+
05612979194+Export HB Nils-Erik AB                                                  NEDRE KRÅKÖVÄGEN 5          45198+UDDEVALLA                SE0456+00646001+PRV20140205+PRV20140205+BAS20131210+00000000+                                    20131114+Export HB Nils-Erik AB                          20131114+0000000050000+0000+10108300000000000+ 00000000+00420131125+ 00000000+120131216+     00000000+    00000000+   49BAS20131216+ 20140205+235329+PRV PRV 0001+0001+ACME1EXPORTHBNI000000+ 200000000+  20140205+000000+
05133963032+Hotels Ryfab Gamleby AB                                                 ÅSLE KRANSATORPET           52191+FALKÖPING                SE0000+00000000+PRV00000000+SIL20150121+BAS20101016+00000000+                                    20101109+Hotels Ryfab Gamleby AB                         20101109+0000000050000+0000+22228100000000000+ 00000000+09420120430+ 00000000+020101124+ LIA 20120417+LI  20110912+   49BAS20120430+ 20120430+235311+PRV BAS 0001+0000+ACME1HOTELSRYFA000000+X 00000000+ 820120430+201106+
05482408498+Micropter Sound Malin                                                   PALMFELTSGRÄND 6            12048+ENSKEDE GÅRD             SE0008+00370160+BAS00000000+BAS20110522+BAS19980320+00000000+                                    19980423+Micropter Sound Malin                           19980301+0000000000000+0000+      00000000000+ 00000000+09419980423+ 00000000+120110614+     00000000+    00000000+   96BAS20110614+ 20110627+235444+BAS BAS 0001+0001+ACME2MICROPTERS000000+ 100000000+  20110614+000000+
05302800957+Mose's Firma Ledning AB                                                 FINNSTORP KOLSNARSVIK 2     64194+KATRINEHOLM              SE0000+00000000+PRV00000000+PRV20150401+BAS20150414+00000000+                                    20150401+Mose's Firma Ledning AB                         20150401+0000000050000+0000+01018000000000000+ 00000000+09420150420+ 00000000+020150420+     00000000+    00000000+   49BAS20150420+ 20150420+234710+PRV BAS 0001+0000+ACME1MOSE'SFIRM000000+  00000000+ 720150401+000000+
05882731242+& Andersson Kantina AB                                                  SANDGATAN 1                 21220+MALMÖ                    SE0018+00290999+PRV00000000+BAS20150117+BAS20110416+00000000+                                    20100915+& Andersson Kantina AB                          20100915+0000000050000+0000+03038000000000000+ 00000000+02420100929+ 00000000+120101006+N    00000000+    00000000+   49BAS20120423+ 20120423+235633+PRV BAS 0001+0001+ACME0&ANDERSSON201406+ 200000000+  20101006+000000+
02090504909+Härnökiosken Vikman Miriam                                              BRÄNNÅSVÄGEN 9              31162+ULLARED                  SE0953+00050060+BAS00000000+BAS19990319+BAS20090118+00000000+                                    19940418+Härnökiosken Vikman Miriam                      19760608+0000000000000+0000+24241800000000000+ 00000000+00419760608+ 00000000+920100523+     00000000+    00000000+41910BAS20100523+ 20100523+173026+HFR BAS 0001+0000+ACME0HÄRNÖKIOSK000000+ 100000000+ 820100523+000000+
07521169974+Myntet25 Asplund Lotta                                                  SANKT GERTRUDS GRÄND 4      29165+KRISTIANSTAD             SE0008+07390085+BAS00000000+BAS20110730+BAS20060325+00000000+                                    20060504+Myntet25 Asplund Lotta                          20060401+0000000000000+0000+01018000000000000+ 00000000+00420060504+ 00000000+100000000+     00000000+    00000000+41910BAS20060504+ 20110905+235809+BAS BAS 0001+0001+ACME9MYNTET25AS000000+ 400000000+  20060504+000000+
08741133626+Ölycke Jakttornet Produktion                                            NORRBY 5                    64695+BJÖRNLUNDA               SE0000+00000000+BAS00000000+BAS20140513+   00000000+00000000+                                    20140519+Ölycke Jakttornet Produktion                    20140508+0000000000000+0000+14148200000000000+ 00000000+00420141208+ 00000000+920141208+     00000000+    00000000+41910BAS20141208+ 20141208+234635+BAS BAS 0001+0000+ACME5ÖLYCKEJAKT000000+ P20141124+ 820141208+000000+
04607310911+Rena Sofia Jennifer                                                     LOHOLM 9                    93894+ARJEPLOG                 SE0090+00133160+BAS00000000+BAS20030830+SOL19910524+00000000+                                    00000000+Rena Sofia Jennifer                             19810101+0000000000000+0000+24248000000000000+ 00000000+00419920223+ 00000000+019910524+     00000000+    00000000+41910BAS20001104+ 20031015+235429+HFR BAS 0001+0000+ACME0RENASOFIAJ000000+  00000000+ 820001104+000000+
05188082852+Catarinas Hästuppfödning Grävtjänst                                     NÄS SÄTERI 1                57398+TRANÅS                   SE0221+00043024+PRV00000000+PRV20081126+BAS20090110+00000000+                                    20081126+Catarinas Hästuppfödning Grävtjänst AB          20081126+0000000100000+0000+19198300000000000+ 00000000+03420081210+ 00000000+120090218+N    00000000+    00000000+   49BAS20120423+ 20120423+000244+PRV BAS 0001+0001+ACME6CATARINASH201404+ 200000000+  20090218+000000+
09824758198+Widerlöv Sverige Tpt HB                                                 HIMMER 810                  71595+KILSMO                   SE0000+00000000+HFR00000000+BAS20150117+BAS20141021+00000000+                                    20141014+Widerlöv Sverige Tpt HB                         20141014+0000000000000+0000+14141900000000000+ 00000000+00420141027+ 00000000+120150209+     00000000+    00000000+   31BAS20150209+ 20150209+234554+HFR BAS 0001+0001+ACME3WIDERLÖVSV000000+ 200000000+  20150209+000000+
05120627939+Trollboden Lagent Software                                              ROSENLUNDSGATAN 4           55450+JÖNKÖPING                SE0000+00000000+BAS00000000+BAS20120503+BAS20120503+00000000+                                    20120424+Trollboden Lagent Software                      20120428+0000000000000+0000+20208000000000000+ 00000000+00420120507+ 00000000+120120507+     00000000+    00000000+41910BAS20120507+ 20120507+235408+HFR BAS 0001+0001+ACME2TROLLBODEN000000+ 400000000+  20120507+000000+
03216392534+Förvaltning High Metusalem                                              KROKAVIKSVÄGEN 68           42941+SÄRÖ                     SE0570+00020005+BAS00000000+BAS20130423+BAS20130506+00000000+                                    20130429+Förvaltning High Metusalem                      20130418+0000000000000+0000+17178400000000000+ 00000000+00420130429+ 00000000+100000000+     00000000+    00000000+41910BAS20130429+ 20130513+235305+BAS BAS 0001+0001+ACME3FÖRVALTNIN000000+ 100000000+  20130429+000000+
04027078833+Ingrid Farah Hundungdom                                                 GULLBERGSVÄGEN 8            36142+LINDÅS                   SE0046+00712171+BAS20081119+BAS20040507+BAS20070121+00000000+                                    00000000+Ingrid Farah Hundungdom                         19830901+0000000000000+0000+12126100000000000+ 00000000+00419860215+ 00000000+119900613+     00000000+    00000000+41910BAS20001104+ 20081119+234811+HFR BAS 0001+0001+ACME3INGRIDFARA000000+ 200000000+  19960211+000000+
06386044256+Andersson Ann Bertil                                                    FURUVÄGEN 16                69430+HALLSBERG                SE0250+00551308+BAS00000000+BAS20131023+BAS20021218+00000000+                                    19961217+Andersson Ann Bertil                            19961101+0000000000000+0000+20203400000000000+ 00000000+00419961217+ 00000000+100000000+     00000000+    00000000+41910BAS20011018+ 20131028+235705+BAS BAS 0001+0001+ACME8ANDERSSONA000000+ 420021220+  19961217+000000+
03496544242+Ideell Umeå 1960                                                        BAGARSTUGEVÄGEN 2           91892+BULLMARK                 SE0000+00000000+BAS20150615+BAS20131231+   00000000+00000000+                                    19980707+Ideell Umeå 1960                                19980701+0000000000000+0000+13138200000000000+ 00000000+00420150615+ 00000000+000000000+     00000000+    00000000+41910BAS20150615+ 20150615+234837+HFR BAS 0001+0000+ACME4IDEELLUMEÅ000000+  00000000+ 820001202+000000+
05922906853+Rederi Hedh Starteam AB                                                 VÅRFRUGATAN 22              41514+GÖTEBORG                 SE0011+00237790+PRV19980312+BAS20150117+BAS20140520+00000000+                                    19960213+Rederi Hedh Starteam AB                         19960207+0000000100000+0000+05018000000000000+ 00000000+00419960314+ 00000000+100000000+N    00000000+    00000000+   49BAS20100421+ 20140526+235018+PRV BAS 0001+0001+ACME3REDERIHEDH201312+ 200000000+  19960326+000000+
06571688313+Animotion Kalassmycken Johanna                                          NÄSSUNDET HYTTGRINDEN       68891+STORFORS                 SE0222+00030042+BAS00000000+BAS20140401+BAS20040912+00000000+                                    20040907+Animotion Kalassmycken Johanna                  20040901+0000000000000+0000+05056200000000000+ 00000000+00420040929+ 00000000+120110307+     00000000+    00000000+41910BAS20140407+ 20140407+235458+HFR BAS 0002+0001+ACME8ANIMOTIONK000000+ 400000000+  20110307+000000+
05719428871+S Siv Otto AB                                                           NYEMÅLA 2                   57794+LÖNNEBERGA               SE0707+00833130+PRV20110315+BAS20150117+BAS20110319+00000000+                                    20110315+S Siv Otto AB                                   20110315+0000000050000+0000+14148000000000000+ 00000000+01420110328+ 00000000+120110503+N    00000000+    00000000+   49BAS20110503+ 20131028+235729+PRV BAS 0001+0001+ACME7SSIVOTTOAB201501+ 200000000+  20110503+000000+
05227639092+Fgi Goode Tobias AB                                                     HÄGNEN 109                  39595+ROCKNEBY                 SE0070+02457459+PRV00000000+PRV20030218+BAS20010107+00000000+                                    20010116+Fgi Goode Tobias AB                             20010109+0000000100000+0000+      00000000000+ 00000000+00420010222+ 00000000+120100523+N    00000000+    00000000+   49BAS20100523+ 20100523+173652+PRV BAS 0002+0001+ACME5FGIGOODETO201406+ 220010124+  20100523+000000+
05807200695+Kjell fören Eriksson AB                                                 HOLMBO RÖSSEL 1             59796+ÅTVIDABERG               SE0021+00134451+PRV20090313+BAS20150117+BAS20071111+00000000+                                    20070115+Kjell fören Eriksson AB                         20070112+0000000100000+0000+19198000000000000+ 00000000+02420070131+ 00000000+120071219+N    00000000+    00000000+   49BAS20130422+ 20140512+235133+PRV BAS 0001+0001+ACME0KJELLFÖREN201412+ 200000000+  20071219+000000+
05007692121+Rockware Services Sven AB                                               KUSKVÄGEN 4                 88050+BACKE                    SE0000+00000000+PRV00000000+PRV20120509+BAS20120515+00000000+                                    20120509+Rockware Services Sven AB                       20120509+0000000050000+0000+24248000000000000+ 00000000+00420120522+ 00000000+120120604+N    00000000+    00000000+   49BAS20120604+ 20120604+235317+PRV BAS 0001+0001+ACME6ROCKWARESE201412+ 200000000+  20120604+000000+
04039939055+Tele El Simrishamnsortens                                               HÄGGESLED BOSSGÅRDEN 4      53194+JÄRPÅS                   SE0000+00000000+BAS00000000+BAS20100410+   00000000+00000000+                                    20100523+Tele El Simrishamnsortens                       20100401+0000000000000+0000+24248200000000000+ 00000000+00420100523+ 00000000+100000000+     00000000+    00000000+41910BAS20100523+ 20100523+174035+BAS BAS 0001+0001+ACME3TELEELSIMR000000+ 219930101+  20100523+000000+
08601675740+Linnvasselv Monday Dencker                                              KARLARP SJÖVÄGEN 33         24371+TJÖRNARP                 SE0000+00000000+BAS00000000+BAS20150117+   00000000+00000000+                                    20080521+Linnvasselv Monday Dencker                      20080501+0000000000000+0000+17178100000000000+ 00000000+00420080521+ 00000000+120150615+     00000000+    00000000+   61BAS20150615+ 20150615+234649+BAS BAS 0001+0001+ACME5LINNVASSEL000000+ 100000000+  20150615+000000+
07279027689+Möbelagentur Sjans Garden                                               KUMMINGRÄND 4               38633+FÄRJESTADEN              SE0000+00000000+BAS00000000+BAS20110827+BAS20100124+00000000+                                    20100217+Möbelagentur Sjans Garden                       20100201+0000000000000+0000+01018000000000000+ 00000000+00420100303+ 00000000+120100310+     00000000+    00000000+41910BAS20100310+ 20111003+000036+HFR BAS 0001+0001+ACME5MÖBELAGENT000000+ 200000000+  20100310+000000+
05786947084+Lagret Annika K                                                         LILLA FAGRARED YTTRE RULLEN 52397+ULRICEHAMN               SE0246+00022064+BAS00000000+BAS20100410+BAS20100410+00000000+                                    20100523+Lagret Annika K                                 20100401+0000000000000+0000+20208000000000000+ 00000000+00420100523+ 00000000+100000000+     00000000+    00000000+41910BAS20100523+ 20100523+174040+BAS BAS 0001+0001+ACME7LAGRETANNI000000+ 219930101+  20100523+000000+
05605358638+Swedes Eckermann 13173 AB                                               HELMFELDTSGATAN 9           30266+HALMSTAD                 SE0000+00000000+PRV00000000+BAS20150117+BAS20140415+00000000+                                    20140402+Swedes Eckermann 13173 AB                       20140402+0000000050000+0000+14148000000000000+ 00000000+09420140421+ 00000000+020140421+     00000000+    00000000+   49BAS20140421+ 20141112+234558+PRV BAS 0001+0000+ACME6SWEDESECKE000000+  00000000+ 720140402+000000+
06069179395+Gruppen & i                                                             TORPVÄGEN 2                 93165+SKELLEFTEÅ               SE0000+00000000+BAS00000000+BAS20140624+BAS20030921+00000000+                                    20020819+Gruppen & i                                     20020601+0000000000000+0000+04042800000000000+ 00000000+00420020819+ 00000000+100000000+     00000000+    00000000+41910BAS20020819+ 20140630+234720+BAS BAS 0001+0001+ACME1GRUPPEN&I 000000+ 420020627+  20020819+000000+
05571031805+Treflip Lions Hälsa AB                                                  GUSTAVSFORS FOLKETS HUS     68391+HAGFORS                  SE0060+00611190+PRV20040505+PRV20110520+BAS20120124+00000000+                                    20040310+Treflip Lions Hälsa AB                          20040309+0000000100000+0000+22228100000000000+ 00000000+00420040401+ 00000000+120040513+N    00000000+    00000000+   49BAS20080423+ 20120130+000136+PRV BAS 0001+0001+ACME1TREFLIPLIO201412+ 200000000+  20040513+000000+
04666825833+Patrik Distribution Sylveko                                             EDSBERGA VÄSTERGÅRD NORRA FL58593+LINKÖPING                SE0070+06609371+BAS00000000+BAS20020316+BAS20020316+00000000+                                    20020430+Patrik Distribution Sylveko                     20020401+0000000000000+0000+22228100000000000+ 00000000+00420020430+ 00000000+100000000+     00000000+    00000000+41910BAS20020430+ 20020501+004010+BAS BAS 0001+0001+ACME7PATRIKDIST000000+ 100000000+  20020430+000000+
05646244656+VEPLI Charter Entreprenad AB                                            NYBYGGEGATAN 4              53139+LIDKÖPING                SE0070+07182019+PRV20090609+PRV20090609+BAS20090801+00000000+                                    20090121+VEPLI Charter Entreprenad AB                    20090121+0000000100000+0000+23232100000000000+ 00000000+00420090205+ 00000000+920130826+N    00000000+    00000000+   49BAS20130826+ 20130826+235756+PRV BAS 0001+0000+ACME1VEPLICHART201312+ E20130815+  20090909+000000+
05145821905+Inger Harrling i                                                        ODENGATAN 32                52142+FALKÖPING                SE0070+09722772+BAS20091223+BAS20140624+BAS20111217+00000000+                                    19890201+Inger Harrling i                                19940601+0000000000000+0000+12129100000000000+ 00000000+00419940711+ 00000000+119910206+     00000000+    00000000+41910BAS20150420+ 20150420+235045+KONVBAS 0001+0001+ACME6INGERHARRL000000+ 200000000+  19960211+000000+
09449826222+Management Industri Psykolog                                            FJÄLLVEDEN LIDSTUGAN        61191+NYKÖPING                 SE0031+00192160+HFR00000000+BAS20150117+SOL19880729+00000000+                                    19860620+Management Industri Psykolog                    19860228+0000000000000+0000+14148000000000000+ 00000000+09420131021+ 00000000+019880729+ UPH 20131009+    00000000+21931BAS20131021+ 20131021+235344+HFR BAS 0001+0000+ACME5MANAGEMENT000000+ 100000000+ 820131021+000000+
05212792286+Lisa Honoris Dahllöf                                                    LÖVSTA SKOLHEM TALLHÖJDEN   61074+VAGNHÄRAD                SE0073+07142148+BAS00000000+BAS20150303+BAS20150410+00000000+                                    20150225+Lisa Honoris Dahllöf                            20150226+0000000000000+0000+14148100000000000+ 00000000+00420150309+ 00000000+120150316+     00000000+    00000000+41910BAS20150316+ 20150413+234711+HFR BAS 0001+0001+ACME2LISAHONORI000000+ 400000000+  20150316+000000+
05852650539+Annika Grundström Sandin                                                BASTUGATAN 5                24133+ESLÖV                    SE0431+00012372+BAS00000000+BAS20000104+BAS19970110+00000000+                                    19970309+Annika Grundström Sandin                        19970101+0000000000000+0000+12129200000000000+ 00000000+00419970309+ 00000000+100000000+     00000000+    00000000+41910BAS20001104+ 20001104+195235+BAS BAS 0001+0001+ACME3ANNIKAGRUN000000+ 419970124+  19970309+000000+
04211256518+Vikaholm & Glad                                                         RAMSMÅLA                    57394+YDRE                     SE0650+00018772+BAS00000000+BAS20041220+BAS20041220+00000000+                                    20050206+Vikaholm & Glad                                 20050101+0000000000000+0000+21218400000000000+ 00000000+00420050206+ 00000000+100000000+     00000000+    00000000+41910BAS20050206+ 20050206+000714+BAS BAS 0001+0001+ACME6VIKAHOLM&G000000+ 420041207+  20050206+000000+
04467127645+Västerberg Signar Vånga                                                 TUNBOHÄSSLE BOCKÖN 590      69491+HALLSBERG                SE0707+00978518+BAS20011101+BAS20100411+BAS20010422+00000000+                                    19860215+Västerberg Signar Vånga                         19850503+0000000000000+0000+12128000000000000+ 00000000+00419860215+ 00000000+920081015+     00000000+    00000000+41910BAS20100523+ 20100523+170135+HFR BAS 0001+0000+ACME1VÄSTERBERG000000+ 100000000+ 820081015+000000+
05773156210+Adha Racing Skogsservice                                                STORVIKSUDDEN 19            82491+HUDIKSVALL               SE0454+00031000+BAS19891113+BAS20140729+BAS19950521+00000000+                                    19860215+Adha Racing Skogsservice                        19840401+0000000000000+0000+10108200000000000+ 00000000+01419860215+ 00000000+119891102+     00000000+    00000000+41910BAS20110912+ 20140804+234644+HFR BAS 0001+0001+ACME0ADHARACING000000+ 200000000+  19960211+000000+
05739619236+Anna Madeleine Skoterskrot AB                                           ÖSTBY STATION 6             81693+OCKELBO                  SE0000+00000000+PRV00000000+PRV20140821+BAS20140826+00000000+                                    20140821+Anna Madeleine Skoterskrot AB                   20140821+0000000050000+0000+01018600000000000+ 00000000+00420140901+ 00000000+120150615+     00000000+    00000000+   49BAS20150615+ 20150615+234713+PRV BAS 0001+0001+ACME2ANNAMADELE000000+ 200000000+  20150615+000000+
08060471243+Telefonplan Birgitta Information                                        ÖVERUD HAGA                 66495+BORGVIK                  SE0000+00000000+BAS00000000+BAS20050806+   00000000+00000000+                                    20050918+Telefonplan Birgitta Information                20050801+0000000000000+0000+17173000000000000+ 00000000+00420100602+ 00000000+120110614+     00000000+    00000000+41910BAS20110614+ 20110615+003242+BAS BAS 0001+0001+ACME8TELEFONPLA000000+ 100000000+  20110614+000000+
06992191327+Sorrentino Sverige Research                                             KÄRDAVÄGEN 27               33195+VÄRNAMO                  SE0927+00077229+BAS00000000+BAS20110424+BAS20110508+00000000+                                    20110530+Sorrentino Sverige Research                     20110519+0000000000000+0000+25251800000000000+ 00000000+00420110530+ 00000000+100000000+     00000000+    00000000+41910BAS20110530+ 20110614+000349+BAS BAS 0001+0001+ACME4SORRENTINO000000+ 400000000+  20110530+000000+
05803671907+Svensson Leech Relations                                                NORRTORPEN 128              74892+ÖSTERBYBRUK              SE0008+06984368+BAS00000000+BAS20040814+BAS19961222+00000000+                                    19960711+Svensson Leech Relations                        19960702+0000000000000+0000+01018000000000000+ 00000000+00419960702+ 00000000+120110614+     00000000+    00000000+41910BAS20110614+ 20110615+002953+HFR BAS 0001+0001+ACME5SVENSSONLE000000+ 419961113+  20110614+000000+
05670217214+Östlund Ranch Snickeri AB                                               GLÖSTORPSVÄGEN 39           41744+GÖTEBORG                 SE0073+02019602+PRV00000000+BAS20040528+BON20070305+00000000+                                    19990921+Östlund Ranch Snickeri AB                       19990914+0000000100000+0000+14149400000000000+ 00000000+01419991015+ 00000000+100000000+N    00000000+    00000000+   49BAS20070418+ 20070418+234655+PRV BAS 0001+0001+ACME6ÖSTLUNDRAN201408+ 200000000+  19991015+000000+
04965094552+Maria Boxter Ergonomikonsult                                            ÖSTALUNDSVÄGEN 5            71894+ERVALLA                  SE0008+06465274+BAS20080220+BAS20110201+BAS20080419+00000000+                                    20071212+Maria Boxter Ergonomikonsult                    20071101+0000000000000+0000+01018000000000000+ 00000000+00420071212+ 00000000+920110131+     00000000+    00000000+41910BAS20110131+ 20110307+235312+BAS BAS 0001+0000+ACME8MARIABOXTE000000+ E20110118+ 820110131+000000+
06870978712+i Konsult Konsultfirma                                                  TOSSENE GAMLA POSTEN        45693+HUNNEBOSTRAND            SE0000+00000000+BAS20061109+BAS20110403+BAS20100216+00000000+                                    19920613+i Konsult Konsultfirma                          19920501+0000000000000+0000+03038000000000000+ 00000000+00419920613+ 00000000+920100224+     00000000+    00000000+41910BAS20100224+ 20110509+235719+HFR BAS 0001+0000+ACME4IKONSULTKO000000+ G20100210+ 820100224+000000+
07062760165+Susanne Stenqvist Fackklubben                                           KÖPMANSGATAN 5              59838+VIMMERBY                 SE0703+00591694+HFR20110907+BAS20120504+BAS20120419+00000000+                                    20090408+Susanne Stenqvist Fackklubben                   20090408+0000000000000+0000+14148000000000000+ 00000000+02420090422+ 00000000+120090624+     00000000+    00000000+   51BAS20130422+ 20130422+235311+HFR BAS 0001+0001+ACME1SUSANNESTE000000+ 200000000+  20090624+000000+
04890847140+Lars Ny Forsberg                                                        RIDDARVÄGEN 166             18451+ÖSTERSKÄR                SE0000+00000000+BAS00000000+BAS20010102+BAS20100217+00000000+                                    19930329+Lars Ny Forsberg                                19930201+0000000000000+0000+18188000000000000+ 00000000+00419930329+ 00000000+900000000+     00000000+    00000000+41910BAS20001104+ 20100324+234737+HFR BAS 0001+0000+ACME4LARSNYFORS000000+ G19940915+ 820001202+000000+
05082005975+Stall Video HB AB                                                       TALLVÄGEN 5                 56240+TABERG                   SE0302+00022664+PRV19980902+BAS20111120+BAS20090210+00000000+                                    00000000+Stall Video HB AB                               19630909+0000000100000+0000+14148000000000000+ 00000000+00420140929+ 00000000+920140714+NFDA 20140917+FDI 20140704+   49BAS20140929+ 20140929+234612+KONVBAS 0001+0000+ACME1STALLVIDEO201312+ E20140701+ 820140929+000000+
09247204739+P & Gunilla HB                                                          HÖRNELLSVÄGEN 3             89141+ÖRNSKÖLDSVIK             SE0033+00236990+HFR00000000+HFR20050113+BAS20041225+00000000+                                    20050116+P & Gunilla HB                                  20050113+0000000000000+0000+14149000000000000+ 00000000+02420050206+ 00000000+120050206+     00000000+    00000000+   31BAS20140429+ 20140429+235808+HFR BAS 0001+0001+ACME4P&GUNILLAH000000+ 200000000+  20050206+000000+
07800056991+Bergström Östersund Skogens                                             HÖKABERG ARVIDSGÅRDEN 2     54193+SKÖVDE                   SE0000+00000000+BAS20130805+BAS20130723+BAS20130723+00000000+                                    20130724+Bergström Östersund Skogens                     20130718+0000000000000+0000+12128700000000000+ 00000000+00420130729+ 00000000+920141013+     00000000+    00000000+41910BAS20141013+ 20141013+234821+HFR BAS 0001+0000+ACME5BERGSTRÖMÖ000000+ E20140930+ 820141013+000000+
05727722372+Elofsson Struktus Tierps AB                                             BÄCKÄNGSGATAN 24            54333+TIBRO                    SE0706+00660500+PRV20120118+PRV20120118+BAS20120124+00000000+                                    20111209+Elofsson Struktus Tierps AB                     20111208+0000000100000+0000+14146200000000000+ 00000000+01420111220+ 00000000+120120130+N    00000000+    00000000+   49BAS20120207+ 20120207+235837+PRV BAS 0001+0001+ACME2ELOFSSONST201312+ 200000000+  20120130+000000+
06517605793+Leanrocket IT Sjukgymnastpraktik                                        SÖDRA MÅLEN 4               56192+HUSKVARNA                SE0008+53033630+BAS00000000+BAS20020810+BON20051202+00000000+                                    19970911+Leanrocket IT Sjukgymnastpraktik                19970901+0000000000000+0000+01012700000000000+ 00000000+00419970829+ 00000000+100000000+     00000000+    00000000+41910BAS20001105+ 20021002+000406+HFR BAS 0001+0001+ACME1LEANROCKET000000+ 419970918+  19971016+000000+
05979699914+Mats Alicia Grill AB                                                    VALLMOVÄGEN 1               13554+TYRESÖ                   SE0480+00442840+PRV20140219+BAS20140617+BAS20140617+00000000+                                    20131206+Mats Alicia Grill AB                            20131206+0000000050000+0000+08088000000000000+ 00000000+00420141117+ 00000000+920140616+ KUÖ 20141104+KK  20140530+   49BAS20141117+ 20141117+235022+PRV BAS 0001+0000+ACME6MATSALICIA000000+ I20140602+ 820141117+000000+
07721574965+Gloa Grönäs Gustafsson                                                  SÖRHOGA 4                   82065+FORSA                    SE0000+00000000+BAS00000000+BAS20131023+   00000000+00000000+                                    20130218+Gloa Grönäs Gustafsson                          20130207+0000000000000+0000+01018000000000000+ 00000000+00420130218+ 00000000+100000000+     00000000+    00000000+41910BAS20131028+ 20131028+235646+BAS BAS 0001+0001+ACME8GLOAGRÖNÄS000000+ 400000000+  20130218+000000+
08819312409+Värmland Kast Karl                                                      HYLLESTIGEN 10              25341+VALLÅKRA                 SE0000+00000000+BAS00000000+BAS20150117+   00000000+00000000+                                    19940302+Värmland Kast Karl                              19940101+0000000000000+0000+21218000000000000+ 00000000+09419940302+ 00000000+000000000+     00000000+    00000000+   61BAS19940302+ 20141222+234535+BAS BAS 0001+0000+ACME2VÄRMLANDKA000000+ 100000000+  19960211+000000+
08181081830+Nohres Rehabiliteringscenter Co                                         HÄLLAN 626                  46291+VÄNERSBORG               SE0000+00000000+BAS20141021+BAS20130806+   00000000+00000000+                                    20130812+Nohres Rehabiliteringscenter Co                 20130801+0000000000000+0000+20208500000000000+ 00000000+00420140602+ 00000000+120140602+     00000000+    00000000+41910BAS20150420+ 20150420+234832+BAS BAS 0002+0001+ACME8NOHRESREHA000000+ 400000000+  20140602+000000+
09536063432+Kristoffersson 6848 Ohlsson HB                                          TALLSTIGEN 2                31260+MELLBYSTRAND             SE0000+00000000+HFR00000000+HFR20041124+BAS20041030+00000000+                                    20041125+Kristoffersson 6848 Ohlsson HB                  20041124+0000000000000+0000+12123300000000000+ 00000000+09420041215+ 00000000+020041215+     00000000+    00000000+   31BAS20041215+ 20041215+234903+HFR BAS 0001+0000+ACME8KRISTOFFER000000+  00000000+ 720041125+000000+
07273688742+Dykeri Lindskog Högström                                                TÄGTGATAN 3                 82631+SÖDERHAMN                SE0000+00000000+BAS20130527+BAS20130514+BAS20130514+00000000+                                    20130516+Dykeri Lindskog Högström                        20130509+0000000000000+0000+14148000000000000+ 00000000+00420130521+ 00000000+120130521+     00000000+    00000000+41910BAS20130521+ 20130527+235024+HFR BAS 0001+0001+ACME0DYKERILIND000000+ 400000000+  20130521+000000+
09401555645+Hpv Vasseur Skärplinge HB                                               SALVIAVÄGEN 5               74334+STORVRETA                SE0000+00000000+HFR00000000+HFR20130703+BAS20130709+00000000+                                    20130704+Hpv Vasseur Skärplinge HB                       20130703+0000000000000+0000+13138300000000000+ 00000000+09420130715+ 00000000+020130715+     00000000+    00000000+   31BAS20130715+ 20130715+235609+HFR BAS 0001+0000+ACME8HPVVASSEUR000000+  00000000+ 720130704+000000+
06151212864+Mats Reklam Birger                                                      HEMMESTORPSVÄGEN 9          27563+BLENTARP                 SE0271+00031103+BAS00000000+BAS20020303+BAS20090809+00000000+                                    19961217+Mats Reklam Birger                              19961101+0000000000000+0000+21212100000000000+ 00000000+00419961217+ 00000000+100000000+     00000000+    00000000+41910BAS20001105+ 20090916+234811+BAS BAS 0001+0001+ACME0MATSREKLAM000000+ 400000000+  19961217+000000+
05035051886+Estrad Sweden Bar-Lock-Inst                                             FURUHÖJD 4                  44632+ÄLVÄNGEN                 SE0021+00356921+BAS00000000+BAS20020219+BAS19971003+00000000+                                    19971029+Estrad Sweden Bar-Lock-Inst                     19971020+0000000000000+0000+19198000000000000+ 00000000+00419971112+ 00000000+920110131+     00000000+    00000000+41910BAS20110131+ 20110201+001129+HFR BAS 0002+0000+ACME8ESTRADSWED000000+ G20110117+ 820110131+000000+
05513428226+Jordbruks Rickardsson Aprilia AB                                        ENEGATAN 4                  53333+GÖTENE                   SE0000+00000000+PRV20140121+PRV20140121+BAS20131217+00000000+                                    20131213+Jordbruks Rickardsson Aprilia AB                20131213+0000000050000+0000+01018000000000000+ 00000000+09420131223+ 00000000+020131223+N    00000000+    00000000+   49PRV20140121+ 20140121+235227+PRV PRV 0001+0000+ACME5JORDBRUKSR201406+  00000000+  20150107+000000+
06736671683+Agenturer Hairbeauty Ingvar                                             HALLONVÄGEN 1               47295+VAREKIL                  SE0320+00016016+BAS00000000+BAS20040828+BAS19970307+00000000+                                    19970205+Agenturer Hairbeauty Ingvar                     19970201+0000000000000+0000+14146300000000000+ 00000000+00419970128+ 00000000+100000000+     00000000+    00000000+41910BAS20100421+ 20100421+234927+HFR BAS 0001+0001+ACME1AGENTURERH000000+ 400000000+  19970415+000000+
05489569565+Åsen-Frissan Per-Olov Agne                                              DANNÄS SJÖGÅRD 2            33012+FORSHEDA                 SE0033+00000000+BAS19910906+PNR20110409+SOL19910906+00000000+                                    19910906+Åsen-Frissan Per-Olov Agne                      19910801+0000000000000+0000+14140100000000000+ 00000000+00420100602+ 00000000+120101124+     00000000+    00000000+41910BAS20101124+ 20101124+235908+KONVBAS 0001+0001+ACME0ÅSEN-FRISS000000+ 300000000+  20101124+000000+
07250190654+Lännersta Ansecon Rune                                                  HEDEN JÄRNAVÄGEN 111        79392+LEKSAND                  SE0011+00391609+BAS00000000+BAS20121127+BAS20130313+00000000+                                    20100421+Lännersta Ansecon Rune                          20100401+0000000000000+0000+05058100000000000+ 00000000+00420100421+ 00000000+100000000+     00000000+    00000000+41910BAS20100421+ 20130411+131816+BAS T#FX0001+0001+ACME5LÄNNERSTAA000000+ 200000000+  20100421+000000+
05089701147+Liberala Västerås Hundcenter AB                                         SAMSTA 108                  84050+GÄLLÖ                    SE0000+00000000+PRV20100504+PRV20100504+BAS20100307+00000000+                                    20100401+Liberala Västerås Hundcenter AB                 20100401+0000000050000+0000+08088100000000000+ 00000000+00420100414+ 00000000+120100609+N    00000000+    00000000+   49BAS20100609+ 20100609+235343+PRV BAS 0001+0001+ACME8LIBERALAVÄ201406+ 200000000+  20100609+000000+
07143943277+Luleå Stenvik Cittadella                                                KARL GUSTAVSGATAN 53        41131+GÖTEBORG                 SE0000+00000000+BAS20140324+BAS20140408+   00000000+00000000+                                    20140217+Luleå Stenvik Cittadella                        20140206+0000000000000+0000+01018000000000000+ 00000000+00420140217+ 00000000+920140526+     00000000+    00000000+41910BAS20140526+ 20140526+235423+BAS BAS 0001+0000+ACME2LULEÅSTENV000000+ E20140515+ 820140526+000000+
09580975606+Engman Himlen Kem                                                       ÄTRADALSVÄGEN 4             31061+ÄTRAN                    SE0010+02009870+HFR20100820+BAS20150117+BAS19970110+00000000+                                    19880622+Engman Himlen Kem                               19910527+0000000000000+0000+01018300000000000+ 00000000+00419880622+ 00000000+119911017+     00000000+    00000000+21931HFR20100822+ 20110718+234935+HFR BAS 0001+0001+ACME7ENGMANHIML000000+ 219960508+  19960731+000000+
08394007192+& Lars-Åke Håkansson                                                    STRANNABACKSVÄGEN 9         30572+STENINGE                 SE0000+00000000+BAS00000000+BAS20150117+   00000000+00000000+                                    20120312+& Lars-Åke Håkansson                            20120301+0000000000000+0000+14138400000000000+ 00000000+09420120312+ 00000000+000000000+     00000000+    00000000+   61BAS20120312+ 20120312+235658+BAS BAS 0001+0000+ACME2&LARS-ÅKEH000000+  00000000+  20120312+000000+
09895435080+Vik i HB                                                                RESTADVÄGEN 52              46254+VÄNERSBORG               SE0000+00000000+BAS00000000+BAS20130326+   00000000+00000000+                                    20130401+Vik i HB                                        20130321+0000000000000+0000+01012600000000000+ 00000000+00420150112+ 00000000+920150112+     00000000+    00000000+41910BAS20150112+ 20150112+235229+BAS BAS 0001+0000+ACME2VIKIHB    000000+ E20141229+ 820150112+000000+
06641596108+Reformkliniken Stockholm Petter                                         KULLBY 15                   74012+KNUTBY                   SE0928+00041000+BAS00000000+BAS20031011+BAS20031011+00000000+                                    20031126+Reformkliniken Stockholm Petter                 20031101+0000000000000+0000+25258200000000000+ 00000000+00420031126+ 00000000+100000000+     00000000+    00000000+41910BAS20031126+ 20031126+001035+BAS BAS 0001+0001+ACME5REFORMKLIN000000+ 100000000+  20031126+000000+
05194897145+Per-Olov Unga Skyttesällskap AB                                         SOLBYSTIGEN 1               51493+AMBJÖRNARP               SE0031+00282290+PRV20070920+PRV20070920+BAS20130219+00000000+                                    20061114+Per-Olov Unga Skyttesällskap AB                 20061113+0000000100000+0000+14148000000000000+ 00000000+01420061130+ 00000000+120091125+N    00000000+    00000000+   49BAS20130211+ 20130225+234733+PRV BAS 0001+0001+ACME3PER-OLOVUN201404+ 200000000+  20091125+000000+
05334376513+Videvox Fören Wikmark AB                                                TVÄRÅSBÄCKEN 205            83019+STORLIEN                 SE0035+00051554+PRV20041028+PNR20100410+BAS20041002+00000000+                                    20041005+Videvox Fören Wikmark AB                        20041004+0000000100000+0000+13138000000000000+ 00000000+01420041028+ 00000000+120041118+N    00000000+    00000000+   49BAS20050509+ 20050509+235138+PRV BAS 0001+0001+ACME3VIDEVOXFÖR201412+ 200000000+  20041118+000000+
07264201380+Jimenez Sjöberg Box                                                     KARTORP 11                  59196+MOTALA                   SE0645+00010654+BAS00000000+BAS20140520+BAS20140528+00000000+                                    20140526+Jimenez Sjöberg Box                             20140515+0000000000000+0000+23238000000000000+ 00000000+00420140526+ 00000000+100000000+     00000000+    00000000+41910BAS20140526+ 20140602+000521+BAS BAS 0001+0001+ACME7JIMENEZSJÖ000000+ 100000000+  20140526+000000+
07445444602+Ljudkontrollen Journalistklubb Ander                                    SNESSLINGE GYLLKROKEN 117   74293+ÖSTHAMMAR                SE0000+00000000+BAS00000000+BAS20080329+BAS20080329+00000000+                                    20080422+Ljudkontrollen Journalistklubb Anders           20080401+0000000000000+0000+12127800000000000+ 00000000+00420080507+ 00000000+120080507+     00000000+    00000000+41910BAS20080507+ 20080507+235432+HFR BAS 0001+0001+ACME8LJUDKONTRO000000+ 200000000+  20080507+000000+
05302109359+Gällivare Roslagen C AB                                                 VÄRMLANDSGATAN 9            26531+ÅSTORP                   SE0073+05990168+PRV20111229+PRV20140402+BAS20140528+00000000+                                    20110414+Gällivare Roslagen C AB                         20110414+0000000050000+0000+01018000000000000+ 00000000+01420110503+ 00000000+120110704+N    00000000+    00000000+   49BAS20120416+ 20140602+000259+PRV BAS 0001+0001+ACME8GÄLLIVARER201308+ 200000000+  20110704+000000+
08222295530+Fritidsservice Antikbron Trestad                                        BIVÄGEN 1                   38634+FÄRJESTADEN              SE0008+07519896+BAS00000000+BAS20040306+BAS19940901+00000000+                                    19940901+Fritidsservice Antikbron Trestad                19770101+0000000000000+0000+01016300000000000+ 00000000+09419940901+ 00000000+900000000+     00000000+    00000000+   61BAS19940901+ 20040421+235017+BAS BAS 0001+0000+ACME0FRITIDSSER000000+ 300000000+  19960211+000000+
08073671284+Pia Bokföringsbyrå Lind                                                 JACOB EKBOHMSGATAN 26       60355+NORRKÖPING               SE0000+00000000+BAS00000000+BAS20150117+   00000000+00000000+                                    20010307+Pia Bokföringsbyrå Lind                         20010101+0000000000000+0000+01019100000000000+ 00000000+09420010307+ 00000000+000000000+     00000000+    00000000+   72BAS20010307+ 20010307+010418+BAS BAS 0001+0000+ACME8PIABOKFÖRI000000+  00000000+  20010307+000000+
09655881408+P Gustav Båtbyggeriet                                                   FISKSJÖN 151                83060+FÖLLINGE                 SE0122+00031001+BAS20100317+BAS20021222+BAS20021222+00000000+                                    19980910+P Gustav Båtbyggeriet                           19980801+0000000000000+0000+05058000000000000+ 00000000+01419980910+ 00000000+100000000+     00000000+    00000000+   21BAS20120423+ 20120423+235932+BAS BAS 0001+0001+ACME6PGUSTAVBÅT000000+  00000000+  19980910+000000+
08231286850+Fastighets Eds K                                                        KYRKVÄGEN 65                26013+SANKT IBB                SE0513+00040156+BAS00000000+BAS20060403+BAS19960214+00000000+                                    19920730+Fastighets Eds K                                19710101+0000000000000+0000+14146600000000000+ 00000000+00419920730+ 00000000+100000000+     00000000+    00000000+   61BAS20140429+ 20140429+235744+BAS BAS 0001+0001+ACME9FASTIGHETS000000+ 100000000+  19960211+000000+
05657595970+Geo 6 H AB                                                              LEKAREKULLA 2               34373+VIRESTAD                 SE0008+07588417+PRV00000000+PRV20070403+BAS19981016+00000000+                                    19931208+Geo 6 H AB                                      19931126+0000000100000+0000+01013600000000000+ 00000000+00419940112+ 00000000+100000000+N    00000000+    00000000+   49BAS20060423+ 20070404+234551+PRV PRV 0001+0001+ACME0GEO6HAB   201404+ 200000000+  19960211+000000+
05432821188+Music Erik Industriellt AB                                              SKOLVÄGEN 5                 92040+KRISTINEBERG             SE0000+00000000+PRV20060614+PRV20080221+BAS20060228+00000000+                                    20060321+Music Erik Industriellt AB                      20060318+0000000100000+0000+14148000000000000+ 00000000+00420060406+ 00000000+120080227+N    00000000+    00000000+   49BAS20080227+ 20080227+235239+PRV BAS 0001+0001+ACME9MUSICERIKI201312+  00000000+  20080227+000000+
04623948579+AM Korpen Stockholm                 AM Korpen Stockholm                 VÄSTIÅSGATAN 11             84092+VEMDALEN                 SE0016+00352279+BAS19940215+BAS20031004+BAS20070121+00000000+                                    19831031+AM Korpen Stockholm                             19940101+0000000000000+0000+04048400000000000+ 00000000+00419940215+ 00000000+920120312+     00000000+    00000000+41910BAS20120312+ 20120312+000551+HFR BAS 0001+0000+ACME4AMKORPENST000000+ E20120229+ 820120312+000000+
06693198415+N 4 R                                                                   KASSÄTTRAVÄGEN 50           13794+NORRA SORUNDA            SE0920+00074965+BAS00000000+BAS20020119+BON20051202+00000000+                                    19961217+N 4 R                                           19961101+0000000000000+0000+25258000000000000+ 00000000+00419961217+ 00000000+100000000+     00000000+    00000000+41910BAS20001105+ 20020306+000632+BAS BAS 0001+0001+ACME4N4R       000000+ 100000000+  19961217+000000+
