07634976661+Förlag Limno Arvid                                                      VINKÖL APELSKOG             53294+SKARA                    SE0000+00000000+BAS00000000+BAS20110228+BAS20011104+00000000+                                    20011129+Förlag Limno Arvid                              20011101+0000000000000+0000+01018000000000000+ 00000000+09420020110+ 00000000+020020110+     00000000+    00000000+41910BAS20020110+ 20110404+235129+HFR BAS 0001+0000+ACME6FÖRLAGLIMN000000+  00000000+ 820020110+000000+
09342822617+Solveig Pro Lindberg                                                    SOLBERGSVÄGEN 3             81134+SANDVIKEN                SE0000+00000000+BAS00000000+BAS20130813+   00000000+00000000+                                    20090916+Solveig Pro Lindberg                            20090901+0000000000000+0000+18188000000000000+ 00000000+00420130819+ 00000000+120130819+     00000000+    00000000+41910BAS20130819+ 20130819+235916+BAS BAS 0002+0001+ACME7SOLVEIGPRO000000+ 400000000+  20130819+000000+
04747141648+Poseidon Inc Bredareds-Ekarebo                                          BRABERG HEDVIKSLUND 1       61493+SÖDERKÖPING              SE0000+00000000+BAS19850117+BAS20070903+BAS20141028+00000000+                                    19850226+Poseidon Inc Bredareds-Ekarebo                  19850117+0000000000000+0000+      00000000000+ 00000000+00420141103+ 00000000+920141103+     00000000+    00000000+41910BAS20141103+ 20141103+234719+HFR BAS 0001+0000+ACME5POSEIDONIN000000+ 100000000+ 820141103+000000+
09226542398+Inga Erik Minne HB                                                      LUNGRET 214                 83595+NÄLDEN                   SE0000+00000000+HFR00000000+BAS20150117+BAS20031004+00000000+                                    20031029+Inga Erik Minne HB                              20031023+0000000000000+0000+14148000000000000+ 00000000+09420150525+ 00000000+020031119+     00000000+    00000000+   31BAS20150525+ 20150525+234803+HFR BAS 0001+0000+ACME8INGAERIKMI000000+  00000000+ 820150525+000000+
07413238911+LMR Lunds Sveriges                                                      ÅKARBACKEN 5                76111+BERGSHAMRA               SE0044+00080545+BAS00000000+BAS20030512+BAS19971115+00000000+                                    19980112+LMR Lunds Sveriges                              19971201+0000000000000+0000+12129300000000000+ 00000000+00419980112+ 00000000+100000000+     00000000+    00000000+41910BAS20001105+ 20030703+000431+BAS BAS 0001+0001+ACME7LMRLUNDSSV000000+ 419971202+  19980112+000000+
05828964048+Hägg Gård Rude AB                                                       TRÄFFGATAN 4                33153+VÄRNAMO                  SE0000+00000000+PRV20150218+PRV20150218+BAS20150203+00000000+                                    20150126+Hägg Gård Rude AB                               20150126+0000000050000+0000+01016300000000000+ 00000000+09420150209+ 00000000+020150209+     00000000+    00000000+   49PRV20150218+ 20150218+234518+PRV PRV 0001+0000+ACME0HÄGGGÅRDRU000000+  00000000+ 720150126+000000+
05808859192+Simons Magnusson Eiritz AB                                              RIGAVÄGEN 7                 18731+TÄBY                     SE0431+00025680+PRV20081205+BAS20040507+BAS19930322+00000000+                                    19921118+Simons Magnusson Eiritz AB                      19921110+0000000100000+0000+12129200000000000+ 00000000+00419940830+ 00000000+100000000+N    00000000+    00000000+   49BAS20140630+ 20140630+234550+PRV BAS 0001+0001+ACME5SIMONSMAGN201404+ 200000000+  19960514+000000+
05653930742+Design Malmén Triv AB                                                   OFFERBERG 9256              82011+VALLSTA                  SE0413+00024650+PRV20010209+PRV20140724+BAS20100508+00000000+                                    19980128+Design Malmén Triv AB                           19980122+0000000100000+0000+12126700000000000+ 00000000+01419980304+ 00000000+100000000+N    00000000+    00000000+   49BAS20000613+ 20140724+234515+PRV PRV 0001+0001+ACME2DESIGNMALM201412+ 200000000+  19980306+000000+
06041156370+Betongtätaren Skandinavian Volams                                       SÖDRA TROLLEVIKSVÄGEN 8     44934+NÖDINGE                  SE0000+00000000+BAS00000000+BAS20060311+   00000000+00000000+                                    19940607+Betongtätaren Skandinavian Volams               19940901+0000000000000+0000+03038200000000000+ 00000000+00419940525+ 00000000+920040707+     00000000+    00000000+41910BAS20060423+ 20060423+235806+HFR BAS 0001+0000+ACME2BETONGTÄTA000000+ I19971017+ 820040707+000000+
05480232601+i Anselin Däck AB                                                       GUDRUNSUND                  13055+ORNÖ                     SE0000+00000000+PRV20100114+SIL20150121+BAS20091108+00000000+                                    20091201+i Anselin Däck AB                               20091201+0000001000000+0000+14148000000000000+ 00000000+00420091217+ 00000000+120130415+N    00000000+    00000000+   49BAS20130415+ 20130415+235202+PRV BAS 0001+0001+ACME8IANSELINDÄ201312+ 200000000+  20130415+000000+
05315237254+Östernärke Golf Sture AB                                                KLÄMMESBO LÖVÅSEN           54493+HJO                      SE0073+03969139+PRV20000203+PRV20100611+BAS20121002+00000000+                                    19990615+Östernärke Golf Sture AB                        19990610+0000000100000+0000+07076300000000000+ 00000000+01419990813+ 00000000+120121016+N    00000000+    00000000+   49BAS20140429+ 20140429+235638+PRV BAS 0002+0001+ACME2ÖSTERNÄRKE201312+ 200000000+  20121016+000000+
09206454143+Arnold Artists Avitech HB                                               SKOGSBRYNET 4               74638+BÅLSTA                   SE0000+00000000+HFR00000000+HFR20000606+BAS20000517+00000000+                                    20000606+Arnold Artists Avitech HB                       20000529+0000000000000+0000+12128300000000000+ 00000000+09420000703+ 00000000+020000703+     00000000+    00000000+   31BAS20000703+ 20000703+005045+HFR BAS 0001+0000+ACME9ARNOLDARTI000000+  00000000+ 720000606+000000+
09688242420+Phoonsap Viby Restin                                                    UNDERSLÖS 3                 45791+TANUMSHEDE               SE0021+04701144+HFR20040712+BAS20150117+BAS20081116+00000000+                                    19930319+Phoonsap Viby Restin                            20040610+0000000000000+0000+19198000000000000+ 00000000+00419930319+ 00000000+100000000+     00000000+    00000000+21931BAS20040825+ 20131209+235318+HFR BAS 0001+0001+ACME4PHOONSAPVI000000+ 100000000+  19960211+000000+
05981141343+Microcap Elfner Solna AB                                                FJÄREHALSVÄGEN 14           43992+ONSALA                   SE0000+00000000+PRV20060203+BAS20150117+BAS20051029+00000000+                                    20051127+Microcap Elfner Solna AB                        20051124+0000000100000+0000+06061700000000000+ 00000000+09420051211+ 00000000+020051211+N    00000000+    00000000+   49PRV20060206+ 20140310+235704+PRV BAS 0001+0000+ACME0MICROCAPEL201406+  00000000+  20061019+000000+
04194436590+Strängnäs Sune Samgis                                                   STENSHOLMSVÄGEN 38          56139+HUSKVARNA                SE0612+00022026+BAS00000000+BAS20110108+BON20051202+00000000+                                    20010404+Strängnäs Sune Samgis                           20010201+0000000000000+0000+22228200000000000+ 00000000+00420100602+ 00000000+120101124+     00000000+    00000000+41910BAS20101124+ 20110214+235406+BAS BAS 0001+0001+ACME0STRÄNGNÄSS000000+ 100000000+  20101124+000000+
05356634880+Plåtslageri Tommy Lennart           Plåtslageri Tommy Lennart           BOSGÅRDEN KYRKÄNG           51694+DANNIKE                  SE0000+00000000+BAS00000000+BAS20150526+   00000000+00000000+                                    20150601+Plåtslageri Tommy Lennart                       20150521+0000000000000+0000+      00000000000+ 00000000+00420150601+ 00000000+100000000+     00000000+    00000000+   96BAS20150601+ 20150602+100146+BAS MAHÖ0001+0001+ACME7PLÅTSLAGER000000+ 200000000+  20150601+000000+
07819533691+Management Lagergren K3K                                                SOLVIKSVÄGEN 6              89150+ÖRNSKÖLDSVIK             SE0070+07484737+BAS20080423+BAS20140812+BAS20090102+00000000+                                    20080408+Management Lagergren K3K                        20080301+0000000000000+0000+01018600000000000+ 00000000+00420080409+ 00000000+120080409+     00000000+    00000000+41910BAS20090525+ 20140818+234847+HFR BAS 0001+0001+ACME9MANAGEMENT000000+ 400000000+  20080409+000000+
04017623481+UK Pedersen Vidivisum                                                   ÖSTERSKATSVÄGEN 27          76018+YXLAN                    SE0000+00000000+BAS00000000+BAS20141202+BAS20000207+00000000+                                    19970522+UK Pedersen Vidivisum                           19970513+0000000000000+0000+01018000000000000+ 00000000+00419970513+ 00000000+920010419+     00000000+    00000000+41910BAS20010419+ 20141208+234821+HFR BAS 0001+0000+ACME3UKPEDERSEN000000+ G20010216+ 820010419+000000+
07991085601+Utveckling Emil Corporate                                               FÄBODLIDEN 18               93795+BURTRÄSK                 SE0013+00217707+BAS00000000+BAS20150331+BAS20130506+00000000+                                    20010705+Utveckling Emil Corporate                       20010601+0000000000000+0000+05058000000000000+ 00000000+00420010705+ 00000000+120110614+     00000000+    00000000+41910BAS20130408+ 20150406+234833+BAS BAS 0001+0001+ACME1UTVECKLING000000+ 100000000+  20110614+000000+
06246171380+Kostis Lackverkstan Gröna                                               BADSTUGATAN 52              69132+KARLSKOGA                SE0000+00000000+BAS00000000+BAS20110730+BAS20110730+00000000+                                    20110826+Kostis Lackverkstan Gröna                       20110825+0000000000000+0000+14148000000000000+ 00000000+00420110905+ 00000000+120111220+     00000000+    00000000+41910BAS20111220+ 20111220+001652+HFR BAS 0001+0001+ACME6KOSTISLACK000000+ 200000000+  20111220+000000+
07814492315+Älvsborg Palabra Nils                                                   UDDEN ASSÖSLINGAN 44        76492+VÄDDÖ                    SE0000+00000000+BAS00000000+BAS20010419+   00000000+00000000+                                    19961217+Älvsborg Palabra Nils                           19961101+0000000000000+0000+08088200000000000+ 00000000+00419961217+ 00000000+100000000+     00000000+    00000000+41910BAS20001105+ 20010608+011624+BAS BAS 0001+0001+ACME2ÄLVSBORGPA000000+ 100000000+  19961217+000000+
03417676446+Aronata Precisionskonstruktion Erik                                     TORSÖ SKOGSGLÄNTAN 1        54291+TORSÖ                    SE0933+00073028+BAS19880101+BAS20000501+BAS20090118+00000000+                                    00000000+Aronata Precisionskonstruktion Erik             19880101+0000000000000+0000+24240400000000000+ 00000000+00419880225+ 00000000+119910205+     00000000+    00000000+41910BAS20001104+ 20090225+234729+HFR BAS 0001+0001+ACME3ARONATAPRE000000+ 100000000+  19961217+000000+
08063030384+Pro Itvet Kareliusson                                                   MALMBERGAVÄGEN 9            73632+KUNGSÖR                  SE0000+00000000+BAS00000000+BAS20150117+   00000000+00000000+                                    20141117+Pro Itvet Kareliusson                           20141106+0000000000000+0000+01018000000000000+ 00000000+09420141117+ 00000000+000000000+     00000000+    00000000+   61BAS20141117+ 20141117+235222+BAS BAS 0001+0000+ACME3PROITVETKA000000+  00000000+  20141117+000000+
07464009047+& i Sweden                          & i Sweden                          ARENASLINGAN 18             12177+JOHANNESHOV              SE0000+00000000+BAS00000000+BAS20101101+BAS20100217+00000000+                                    20051003+& i Sweden                                      20051001+0000000000000+0000+01012500000000000+ 00000000+00420051023+ 00000000+920071212+     00000000+    00000000+41910BAS20101208+ 20101208+235124+HFR BAS 0001+0000+ACME8&ISWEDEN  000000+ N20070628+ 820071212+000000+
05172036666+Monoo Syrisk Ourimi AB                                                  SÅGVÄGEN 11                 98041+HAKKAS                   SE0000+00000000+PRV00000000+PRV20140526+BAS20140603+00000000+                                    20140527+Monoo Syrisk Ourimi AB                          20140526+0000000050000+0000+22228100000000000+ 00000000+09420140609+ 00000000+020140609+     00000000+    00000000+   49BAS20140609+ 20140609+235705+PRV BAS 0001+0000+ACME5MONOOSYRIS000000+X 00000000+ 720140527+000000+
06541065949+Invest Ragnar Bygg                                                      LILJANSBO                   76295+RIMBO                    SE0054+00833387+BAS00000000+BAS20100926+BON20051202+00000000+                                    19970429+Invest Ragnar Bygg                              19970501+0000000000000+0000+17178000000000000+ 00000000+00419970603+ 00000000+920121016+     00000000+    00000000+41910BAS20121016+ 20121016+001015+HFR BAS 0001+0000+ACME2INVESTRAGN000000+ G20121003+ 820121016+000000+
08300618868+Monika Data Rr                                                          KÅLLANDSÖ VÄNSJÖ 9          53199+LIDKÖPING                SE0000+00000000+BAS00000000+BAS20131231+BAS20040821+00000000+                                    20040913+Monika Data Rr                                  20040901+0000000000000+0000+07078000000000000+ 00000000+00420041006+ 00000000+920120402+     00000000+    00000000+41910BAS20120402+ 20140106+234906+HFR BAS 0001+0000+ACME3MONIKADATA000000+ G20120316+ 820120402+000000+
05502141970+Kuzeyinvest Viken i AB              Kuzeyinvest Viken i AB              WESTMANS VÄG 13             64551+STRÄNGNÄS                SE0530+00041400+SOL19870403+SOL19910122+BAS19960819+00000000+                                    19861229+Kuzeyinvest Viken i AB                          19861216+0000000500000+0000+14146100000000000+ 00000000+03419870330+ 00000000+119910122+N    00000000+    00000000+   49BAS20090422+ 20090422+234601+KONVBAS 0001+0001+ACME0KUZEYINVES201412+ 200000000+  19960716+000000+
05175517530+Lindbom Meghdid Svante                                                  STENÅLDERSVÄGEN 1           26365+VIKEN                    SE0073+07845332+BAS00000000+BAS20090315+BAS20100215+00000000+                                    20090422+Lindbom Meghdid Svante                          20090401+0000000000000+0000+13000000000000000+ 00000000+00420100909+ 00000000+920100909+     00000000+    00000000+41910BAS20100909+ 20100909+012930+BAS BAS 0001+0000+ACME4LINDBOMMEG000000+ 200000000+ 820101003+000000+
05224730613+of & Ripost                                                             STRAND VÄSTRA FLYGELN       63505+ESKILSTUNA               SE0280+00084001+BAS00000000+BAS20090704+BAS19990209+00000000+                                    19990119+of & Ripost                                     19990201+0000000000000+0000+14149600000000000+ 00000000+00419990324+ 00000000+920130722+     00000000+    00000000+41910BAS20130722+ 20130722+235129+HFR BAS 0001+0000+ACME6OF&RIPOST 000000+ G20130710+ 820130722+000000+
07059401856+Konsult Ahlenius HB                                                     ÄTTEHAGSVÄGEN 18            18762+TÄBY                     SE0000+00000000+BAS20060706+BAS20120724+BAS20140902+00000000+                                    19920613+Konsult Ahlenius HB                             19920501+0000000000000+0000+      00000000000+ 00000000+00419920613+ 00000000+920130415+     00000000+    00000000+41910BAS20140908+ 20140908+234728+HFR BAS 0001+0000+ACME6KONSULTAHL000000+ N20120911+ 820130415+000000+
06909335868+Värdeskåpet Trezon Flygfältet                                           HYTTKVARN 12                79022+SÅGMYRA                  SE0008+07590815+BAS00000000+BAS20070409+BON20051202+00000000+                                    19940901+Värdeskåpet Trezon Flygfältet                   19940901+0000000000000+0000+01012500000000000+ 00000000+00400000000+ 00000000+100000000+     00000000+    00000000+41910BAS20040929+ 20070523+235131+HFR BAS 0001+0001+ACME8VÄRDESKÅPE000000+ 400000000+  19960211+000000+
09290883116+Redovisningskonsult Tellusborgshus A                                    LYBBY HÖJDEN 312            69493+ÖSTANSJÖ                 SE0300+00070245+HFR20041117+BAS20140701+BAS20030315+00000000+                                    20030224+Redovisningskonsult Tellusborgshus Almbris HB   20041117+0000000000000+0000+13138400000000000+ 00000000+00420030319+ 00000000+920140707+     00000000+    00000000+   31BAS20140707+ 20140707+234640+HFR BAS 0001+0000+ACME7REDOVISNIN000000+ E20140624+ 720140707+000000+
08799785384+Vesterlund Rimoto Nicklasson                                            GAMMBOTORP 150              69791+PÅLSBODA                 SE0008+00000000+SOL19881001+PNR19960510+SOL19881117+00000000+                                    19881117+Vesterlund Rimoto Nicklasson                    19881001+0000000000000+0000+01018000000000000+ 00000000+09419881117+ 00000000+019881117+     00000000+    00000000+   61SOL19881117+ 19911018+240000+KONV    0001+0000+ACME8VESTERLUND000000+ 300000000+  19960211+000000+
05578106980+Tobias Berth's Invest               Tobias Berth's Invest               RISVIKEN NOLBACKANE         67291+ÅRJÄNG                   SE0008+06497742+BAS00000000+BAS20110718+BAS20130924+00000000+                                    19990928+Tobias Berth's Invest                           19990924+0000000000000+0000+01018000000000000+ 00000000+00419990924+ 00000000+100000000+     00000000+    00000000+41910BAS20090617+ 20130930+235604+HFR BAS 0001+0001+ACME4TOBIASBERT000000+ 219991019+  19991117+000000+
05705016573+Bostäder Blue Ghassani AB                                               DÖRJVÄGEN 16                43492+VALLDA                   SE0000+00000000+PRV20150629+PRV20150629+BAS20150602+00000000+                                    20150526+Bostäder Blue Ghassani AB                       20150526+0000000050000+0000+01018000000000000+ 00000000+09420150608+ 00000000+020150608+     00000000+    00000000+   49PRV20150629+ 20150629+234522+PRV PRV 0001+0000+ACME4BOSTÄDERBL000000+  00000000+ 720150526+000000+
05704444149+Interlift Forestry i                                                    OLLE LINGVALLS VÄG 9        88191+SOLLEFTEÅ                SE0000+00000000+BAS00000000+BAS20150707+   00000000+00000000+                                    20150714+Interlift Forestry i                            20150702+0000000000000+0000+      00000000000+ 00000000+01420150714+ 00000000+100000000+     00000000+    00000000+   96BAS20150714+ 20150714+234645+BAS BAS 0001+0001+ACME5INTERLIFTF000000+ 100000000+  20150714+000000+
09987043933+Åmsele Diabetesföreningen Maxwell HB                                    HJULBÄCK SILJANSVÄGEN 1     79397+SILJANSNÄS               SE0000+00000000+HFR00000000+HFR20011002+BAS20010908+00000000+                                    20011002+Åmsele Diabetesföreningen Maxwell HB            20010927+0000000000000+0000+10108000000000000+ 00000000+09420111010+ 00000000+020011101+ UPH 20110927+    00000000+   31BAS20111010+ 20111010+234851+HFR BAS 0001+0000+ACME5ÅMSELEDIAB000000+  00000000+ 820111010+000000+
04661199218+Consulting i Östgöta                                                    RONA RÖDABO                 33197+VÄRNAMO                  SE0031+00267545+BAS00000000+BAS20110716+BAS20051202+00000000+                                    20031211+Consulting i Östgöta                            20031201+0000000000000+0000+14148000000000000+ 00000000+00420040107+ 00000000+120060119+     00000000+    00000000+41910BAS20110726+ 20110822+235319+HFR BAS 0001+0001+ACME6CONSULTING000000+ 400000000+  20060119+000000+
05585665648+Axelsson Textology Snickaren AB                                         VÄSTRA NABBAN 158           82291+ALFTA                    SE0008+06597800+PRV20050603+PRV20090207+BAS20050528+00000000+                                    20041214+Axelsson Textology Snickaren AB                 20041213+0000000100000+0000+01018000000000000+ 00000000+00420130211+ 00000000+920120604+NFDA 20130131+FDI 20121119+   49BAS20130211+ 20130211+234824+PRV BAS 0001+0000+ACME8AXELSSONTE201204+ 100000000+ 820130211+000000+
05934577734+Stånga Gis Johansson                                                    GUTTAREBOL 12               67295+ÅRJÄNG                   SE0042+00348153+BAS00000000+BAS20080510+BAS20090504+00000000+                                    20080618+Stånga Gis Johansson                            20080601+0000000000000+0000+12128400000000000+ 00000000+00420080618+ 00000000+100000000+     00000000+    00000000+41910BAS20080618+ 20090611+002614+BAS BAS 0001+0001+ACME1STÅNGAGISJ000000+ 400000000+  20080618+000000+
07133895016+Arnes Siv Lexington                                                     BREVIKSNÄS LILJESTAD 2      61042+GRYT                     SE0070+06907070+BAS00000000+BAS20120307+BAS20070708+00000000+                                    20070802+Arnes Siv Lexington                             20070801+0000000000000+0000+12126300000000000+ 00000000+00420070815+ 00000000+120070829+     00000000+    00000000+41910BAS20110815+ 20120312+000337+HFR BAS 0001+0001+ACME5ARNESSIVLE000000+ 400000000+  20070829+000000+
05398479559+Smaskens Nr Arkitektur AB                                               ÄNGSGATAN 5                 31432+HYLTEBRUK                SE0734+00242085+PRV00000000+PRV20150317+BAS20130723+00000000+                                    20130626+Smaskens Nr Arkitektur AB                       20130626+0000000050000+0000+01018000000000000+ 00000000+00420130708+ 00000000+120130729+N    00000000+    00000000+   49BAS20130729+ 20150318+234514+PRV PRV 0001+0001+ACME5SMASKENSNR201412+ 200000000+  20130729+000000+
01673732358+Konsult Diva Frost                                                      ÅKES HAGE 351               38896+HAGBY                    SE0000+00000000+BAS00000000+BAS20150117+   00000000+00000000+                                    20130708+Konsult Diva Frost                              20130627+0000000000000+0000+22228400000000000+ 00000000+00420130708+ 00000000+100000000+     00000000+    00000000+   91BAS20130708+ 20140414+235541+BAS BAS 0001+0001+ACME8KONSULTDIV000000+ 100000000+  20130708+000000+
09933706690+Anders Finans Thaimassage HB                                            HEMVÄGEN 2                  82831+EDSBYN                   SE0240+00651156+HFR00000000+HFR20060307+BAS20060311+00000000+                                    20060308+Anders Finans Thaimassage HB                    20060307+0000000000000+0000+20206100000000000+ 00000000+00420060323+ 00000000+120060423+     00000000+    00000000+   31BAS20060423+ 20060424+004349+HFR BAS 0001+0001+ACME4ANDERSFINA000000+ 200000000+  20060423+000000+
06243777619+Götalands Gustafsson Bruno                                              ÖSBY HAGA 521               69791+PÅLSBODA                 SE0008+06521750+BAS00000000+BAS20030225+BAS20090117+00000000+                                    19960320+Götalands Gustafsson Bruno                      19960401+0000000000000+0000+01016300000000000+ 00000000+00419960311+ 00000000+100000000+     00000000+    00000000+41910BAS20030416+ 20090225+235010+HFR BAS 0001+0001+ACME4GÖTALANDSG000000+ 419961009+  19961028+000000+
05618533706+Voss Lilliehöök Malmö AB                                                RÖNNGATAN 3                 23170+ANDERSLÖV                SE0684+00030404+PRV20120412+PRV20081230+BAS20130115+00000000+                                    20060531+Voss Lilliehöök Malmö AB                        20060530+0000000200000+0000+23236100000000000+ 00000000+01420060615+ 00000000+120061005+N    00000000+    00000000+   49BAS20140429+ 20140429+235143+PRV BAS 0001+0001+ACME3VOSSLILLIE201406+ 200000000+  20061005+000000+
04590781870+Mölndal Söderblom Gröna                                                 TRYCKERIGATAN 1             27336+TOMELILLA                SE0000+00000000+BAS00000000+BAS20100926+   00000000+00000000+                                    19961217+Mölndal Söderblom Gröna                         19961101+0000000000000+0000+08083400000000000+ 00000000+00419961217+ 00000000+100000000+     00000000+    00000000+41910BAS20001104+ 20101103+235023+BAS BAS 0001+0001+ACME1MÖLNDALSÖD000000+ 100000000+  19961217+000000+
07573960221+KB Forsman Ekoip                                                        DJUR 18                     78560+DJURÅS                   SE0000+00000000+BAS00000000+BAS20131008+   00000000+00000000+                                    20131014+KB Forsman Ekoip                                20131003+0000000000000+0000+01012600000000000+ 00000000+00420131014+ 00000000+100000000+     00000000+    00000000+41910BAS20131014+ 20131014+235830+BAS BAS 0001+0001+ACME5KBFORSMANE000000+ 400000000+  20131014+000000+
05609408876+ANA Acuremetrics Anders AB                                              NOCKETORP GRÖNLID           59098+EDSBRUK                  SE0013+00122424+PRV20121114+PRV20121114+BAS20121113+00000000+                                    20121009+ANA Acuremetrics Anders AB                      20121009+0000000050000+0000+05058000000000000+ 00000000+00420150622+ 00000000+920140811+NKUÖ 20150605+KK  20140611+   49BAS20150622+ 20150622+234849+PRV BAS 0001+0000+ACME3ANAACUREME201212+ I20140618+ 820150622+000000+
06949580028+Karl Of &                                                               HERMELINSGATAN 21           96133+BODEN                    SE0708+00628638+BAS20090506+BAS20031102+BAS19990209+00000000+                                    19950426+Karl Of &                                       19950421+0000000000000+0000+14147100000000000+ 00000000+00419950421+ 00000000+100000000+     00000000+    00000000+41910BAS20001105+ 20090506+234856+HFR BAS 0001+0001+ACME3KARLOF&   000000+ 419950615+  19960220+000000+
05435963268+Olsson Ulrika Stefan AB                                                 SAGADAL                     91290+VILHELMINA               SE0144+00012191+PRV19960209+PRV20101029+BAS20050827+00000000+                                    00000000+Olsson Ulrika Stefan AB                         19830222+0000000100000+0000+20186100000000000+ 00000000+00420111121+ 00000000+920100407+NLIA 20111107+LI  20101022+   49BAS20111121+ 20111121+000003+KONVBAS 0001+0000+ACME0OLSSONULRI201104+ E20100324+ 820111121+000000+
05528362063+Thölix Anna och AB                                                      KUNGSLENA JENNYLUND         52293+TIDAHOLM                 SE0060+00129350+PRV20041122+PRV20040928+BAS19930617+00000000+                                    19890525+Thölix Anna och AB                              19890519+0000000100000+0000+01018000000000000+ 00000000+00419890614+ 00000000+119900214+N    00000000+    00000000+   49PRV20041123+ 20041123+234527+KONVPRV 0001+0001+ACME2THÖLIXANNA201312+ 200000000+  20000201+000000+
05405945972+Latvalas L CH AB                                                        VISKERYD BLOMMEDAL 1        58592+LINKÖPING                SE0000+00000000+PRV20081105+PRV20080819+BAS20080726+00000000+                                    20080819+Latvalas L CH AB                                20080819+0000000100000+0000+14148000000000000+ 00000000+09420080903+ 00000000+020080903+N    00000000+    00000000+   49BAS20080903+ 20081105+234518+PRV PRV 0001+0000+ACME9LATVALASLC201312+  00000000+  20100810+000000+
05526633671+Magnusson Larsson Stenet AB                                             FOGDEVÄGEN 3                44250+YTTERBY                  SE0070+02572373+PRV20091104+PRV20110913+BAS20020303+00000000+                                    20011218+Magnusson Larsson Stenet AB                     20011214+0000000100000+0000+01018000000000000+ 00000000+00420130902+ 00000000+920111121+NKUÖ 20130821+KK  20111025+   49BAS20130902+ 20130902+235335+PRV BAS 0001+0000+ACME0MAGNUSSONL200904+ I20111109+ 820130902+000000+
07812491384+Germ Atlas Gillersklacks                                                AGNETORP GISSLARTORP 2      52294+TIDAHOLM                 SE0501+00050309+BAS00000000+BAS20110619+BAS20060910+00000000+                                    20061019+Germ Atlas Gillersklacks                        20061001+0000000000000+0000+14147300000000000+ 00000000+00420061019+ 00000000+100000000+     00000000+    00000000+41910BAS20061019+ 20110726+235339+BAS BAS 0001+0001+ACME3GERMATLASG000000+ 400000000+  20061019+000000+
05333532512+HB Skånes HB AB                                                         KALKVÄGEN 3                 90740+UMEÅ                     SE0221+00013460+PRV00000000+PRV20101124+BAS20081227+00000000+                                    20080526+HB Skånes HB AB                                 20080526+0000000200000+0000+09188200000000000+ 00000000+00420080611+ 00000000+120101124+N    00000000+    00000000+   49PRV20150623+ 20150623+234509+PRV PRV 0001+0001+ACME8HBSKÅNESHB201406+ 200000000+  20101124+000000+
05118223881+JG Lundgren Spincap AB                                                  KÖKSMÄSTARVÄGEN 10          39364+KALMAR                   SE0370+00301093+SOL19860715+BAS20040504+BAS19941018+00000000+                                    19851229+JG Lundgren Spincap AB                          19851220+0000000100000+0000+06068300000000000+ 00000000+01419860322+ 00000000+119890614+N    00000000+    00000000+   49PRV19970617+ 20040617+234903+KONVBAS 0001+0001+ACME6JGLUNDGREN201412+ 200000000+  19960211+000000+
07335657677+Scandi & i                                                              LÄRARVÄGEN 8                24745+TORNA-HÄLLESTAD          SE0008+07115571+BAS00000000+BAS20111121+BAS20100203+00000000+                                    20100224+Scandi & i                                      20100201+0000000000000+0000+01012600000000000+ 00000000+00420100224+ 00000000+100000000+     00000000+    00000000+41910BAS20100224+ 20111226+235225+BAS BAS 0001+0001+ACME1SCANDI&I  000000+ 400000000+  20100224+000000+
07986440092+VVS Association Ipdus               VVS Association Ipdus               GAMLA KULLAVIKSVÄGEN 3      42933+KULLAVIK                 SE0709+00740454+BAS00000000+BAS20101128+BAS20050424+00000000+                                    20020111+VVS Association Ipdus                           20020101+0000000000000+0000+12128000000000000+ 00000000+00420020207+ 00000000+120020320+     00000000+    00000000+41910BAS20050606+ 20110105+235229+HFR BAS 0001+0001+ACME4VVSASSOCIA000000+ 200000000+  20020320+000000+
08823515310+Rannäs Arvidssons Fiket                                                 RODERGATAN 6                72348+VÄSTERÅS                 SE0000+00000000+BAS00000000+BAS20150117+   00000000+00000000+                                    20141202+Rannäs Arvidssons Fiket                         20141120+0000000000000+0000+03038000000000000+ 00000000+09420141202+ 00000000+000000000+     00000000+    00000000+   61BAS20141202+ 20141202+234935+BAS BAS 0001+0000+ACME9RANNÄSARVI000000+  00000000+  20141202+000000+
03700165891+HB Geddeholms Vind                                                      LÅNGHOLMSTORP PRIMSTORP 1   64694+BJÖRNLUNDA               SE0000+00000000+BAS00000000+BAS20130305+   00000000+00000000+                                    20130311+HB Geddeholms Vind                              20130228+0000000000000+0000+17176300000000000+ 00000000+00420130311+ 00000000+100000000+     00000000+    00000000+41910BAS20130311+ 20130311+234930+BAS BAS 0001+0001+ACME1HBGEDDEHOL000000+ 100000000+  20130311+000000+
08572476185+Bolin Cicero E                                                          SOLSKENSVÄGEN 16            43254+VARBERG                  SE0970+00000000+SOL19851116+BAS20150117+SOL19910403+00000000+                                    19851116+Bolin Cicero E                                  00000000+0000000000000+0000+25252300000000000+ 00000000+09419860215+ 00000000+019910403+     00000000+    00000000+   61SOL19910403+ 20130121+234850+KONVBAS 0001+0000+ACME2BOLINCICER000000+ 300000000+  19960211+000000+
05621439503+& Jonlars Viksängs AB                                                   VALLAREVÄGEN 2              84131+ÅNGE                     SE0000+00000000+PRV19971124+BAS20050427+BAS20120302+00000000+                                    19920701+& Jonlars Viksängs AB                           19920622+0000000100000+0000+18188000000000000+ 00000000+01419940830+ 00000000+100000000+N    00000000+    00000000+   49BAS20150420+ 20150420+235202+PRV BAS 0001+0001+ACME8&JONLARSVI201406+ 200000000+  19960211+000000+
06484803892+Getekulla Ulrik Bil                                                     SLEIPNERVÄGEN 2             85741+SUNDSVALL                SE0000+00000000+BAS00000000+BAS20131023+BAS20100217+00000000+                                    19970109+Getekulla Ulrik Bil                             19970103+0000000000000+0000+01018200000000000+ 00000000+00419970103+ 00000000+920030213+     00000000+    00000000+41910BAS20030213+ 20131028+235648+HFR BAS 0002+0000+ACME8GETEKULLAU000000+ G20030109+ 820030213+000000+
05334335980+Borgs Nokemi Risebjers AB                                               HAMNGATAN 22                44267+MARSTRAND                SE0000+00000000+PRV20020603+PRV20130306+BAS19990306+00000000+                                    19990316+Borgs Nokemi Risebjers AB                       19990309+0000000100000+0000+14148000000000000+ 00000000+09419990422+ 00000000+000000000+N    00000000+    00000000+   49PRV20020610+ 20130306+234510+PRV PRV 0001+0000+ACME8BORGSNOKEM201406+  00000000+ 720090208+000000+
09742920177+Bygg Lissy Resources HB                                                 LÅNGKROKSVÄGEN 59           28139+HÄSSLEHOLM               SE0000+00000000+HFR00000000+HFR20060428+BAS20060412+00000000+                                    20060502+Bygg Lissy Resources HB                         20060428+0000000000000+0000+22228100000000000+ 00000000+09420060518+ 00000000+020060518+     00000000+    00000000+   31BAS20060518+ 20060518+000357+HFR BAS 0001+0000+ACME7BYGGLISSYR000000+  00000000+ 720060502+000000+
05135968112+Karlsson Svedan &                                                       TORSVI BASTLAGNÖ 2          74599+ENKÖPING                 SE0035+00080080+BAS19830901+BAS20150428+SOL19851116+00000000+                                    00000000+Karlsson Svedan &                               19830901+0000000000000+0000+07078100000000000+ 00000000+01419851116+ 00000000+119851116+     00000000+    00000000+41910BAS20101013+ 20150504+234631+HFR BAS 0001+0001+ACME0KARLSSONSV000000+ 200000000+  19960211+000000+
04997898483+Ströms Ljudmakaren Oy                                                   ÄLGHAMMAR 2                 34196+LJUNGBY                  SE0000+00000000+BAS00000000+BAS20101019+   00000000+00000000+                                    19970413+Ströms Ljudmakaren Oy                           19970301+0000000000000+0000+20203900000000000+ 00000000+00420100602+ 00000000+120101124+     00000000+    00000000+41910BAS20101124+ 20101124+235954+BAS BAS 0001+0001+ACME0STRÖMSLJUD000000+ 100000000+  20101124+000000+
07472748487+Uddevalla Ensis &                                                       KOLLÅKERSKOG SOLHALLA       33391+SMÅLANDSSTENAR           SE0000+00000000+BAS20100922+BAS20070704+   00000000+00000000+                                    20070808+Uddevalla Ensis &                               20070801+0000000000000+0000+12129300000000000+ 00000000+00420070808+ 00000000+100000000+     00000000+    00000000+41910BAS20070808+ 20100922+234908+BAS BAS 0001+0001+ACME6UDDEVALLAE000000+ 200000000+  20070808+000000+
05435127583+Bartholdsson Östersund Hederoth AB                                      SKÖRDA 4                    34252+VISLANDA                 SE0026+00183630+PRV20121108+PRV20121108+BAS20060424+00000000+                                    20060423+Bartholdsson Östersund Hederoth AB              20060420+0000000100000+0000+21218000000000000+ 00000000+00420140331+ 00000000+920130204+NKUÖ 20140319+KUÖ 20140225+   49BAS20140331+ 20140331+235951+PRV BAS 0001+0000+ACME0BARTHOLDSS201112+ I20121115+ 820140331+000000+
09833276760+Niklas Tore Andersson HB                                                FRITIDSVÄGEN 3              46332+LILLA EDET               SE0693+00031019+HFR19860908+BAS20130412+BAS20060101+00000000+                                    19940531+Niklas Tore Andersson HB                        19860908+0000000000000+0000+23230500000000000+ 00000000+00419861203+ 00000000+120110614+     00000000+    00000000+   31BAS20110614+ 20130415+235009+HFR BAS 0001+0001+ACME9NIKLASTORE000000+ 200000000+  20110614+000000+
04399255159+Sinda Fören &                                                           GRAVAFORS GRAVELID          54393+TIBRO                    SE0456+00010067+BAS20011101+BAS20020126+BAS19961028+00000000+                                    19960417+Sinda Fören &                                   19960411+0000000000000+0000+10108300000000000+ 00000000+00419960620+ 00000000+920120213+     00000000+    00000000+41910BAS20120213+ 20120213+235733+HFR BAS 0001+0000+ACME4SINDAFÖREN000000+ G20120202+ 820120213+000000+
04097713764+Bostadsföreningen & Cestino                                             FLENSVÄGEN 11               12541+ÄLVSJÖ                   SE0000+00000000+BAS00000000+BAS20040905+BAS20100217+00000000+                                    19940915+Bostadsföreningen & Cestino                     19740701+0000000000000+0000+14140100000000000+ 00000000+00419740701+ 00000000+920050123+     00000000+    00000000+41910BAS20050123+ 20100324+234743+HFR BAS 0001+0000+ACME7BOSTADSFÖR000000+ P20041220+ 820050123+000000+
05482034070+Taxi Tomtbolaget Sverige AB                                             SVARSPOST/FRISVAR           87220+KRAMFORS                 SE0159+00030250+SOL19720214+PRV20140724+SOL19890909+00000000+                                    00000000+Taxi Tomtbolaget Sverige AB                     19720214+0000000250000+0000+04048600000000000+ 00000000+02419851116+ 00000000+119890909+N    00000000+    00000000+   49PRV19970528+ 20140724+234514+KONVPRV 0002+0002+ACME8TAXITOMTBO201412+ 200000000+  19960403+000000+
08998024445+Josefsson Media Boy                                                     VIOLSTIGEN 6                56831+SKILLINGARYD             SE0031+07405416+BAS00000000+BAS20140729+BAS20101102+00000000+                                    20081001+Josefsson Media Boy                             20080901+0000000000000+0000+14142100000000000+ 00000000+00420081001+ 00000000+100000000+     00000000+    00000000+41910BAS20140804+ 20140804+234613+BAS BAS 0001+0001+ACME2JOSEFSSONM000000+ 400000000+  20081001+000000+
08905137348+Stigus Bärgningstjänst Aker                                             LOKES HAGE 41               61071+VAGNHÄRAD                SE0000+00000000+BAS00000000+BAS20140708+BAS20140902+00000000+                                    20130611+Stigus Bärgningstjänst Aker                     20130613+0000000000000+0000+      00000000000+ 00000000+00420130624+ 00000000+120130722+     00000000+    00000000+41910BAS20140908+ 20140908+234735+HFR BAS 0001+0001+ACME3STIGUSBÄRG000000+ 400000000+  20130722+000000+
05759510042+Trädfällning Entreprenad Bygg AB                                        STRÅSUNDSVIKEN 314          89340+KÖPMANHOLMEN             SE0709+00900465+PRV20101101+SIL20150121+BAS20100926+00000000+                                    20100906+Trädfällning Entreprenad Bygg AB                20100906+0000000050000+0000+14149600000000000+ 00000000+00420100922+ 00000000+120101103+N    00000000+    00000000+   49BAS20130422+ 20130422+235149+PRV BAS 0001+0001+ACME1TRÄDFÄLLNI201312+ 200000000+  20101103+000000+
09214205222+Katharsis Rosvall Fredahl HB                                            SUNSANÄSET SOLGLIMT 1       66193+SÄFFLE                   SE0008+00943348+HFR19841203+SOL19890110+SOL19890110+00000000+                                    19850210+Katharsis Rosvall Fredahl HB                    19841203+0000000000000+0000+01018000000000000+ 00000000+09420120207+ 00000000+919890110+ UPH 20120125+    00000000+21931BAS20120207+ 20120207+235816+HFR BAS 0001+0000+ACME4KATHARSISR000000+ 100000000+ 820120207+000000+
01364912905+Urbergets Lindbom Erik                                                  VALLINSVÄGEN 46             43291+VARBERG                  SE0000+00000000+BAS00000000+BAS20150616+   00000000+00000000+                                    20150622+Urbergets Lindbom Erik                          20150611+0000000000000+0000+24240900000000000+ 00000000+00420150622+ 00000000+100000000+     00000000+    00000000+   91BAS20150622+ 20150622+234913+BAS BAS 0001+0001+ACME7URBERGETSL000000+ 100000000+  20150622+000000+
05007660565+Imt Silverarvet Viktor                                                  TROLLHÄTTEVÄGEN 14          46631+SOLLEBRUNN               SE0700+00357018+BAS00000000+BAS20140325+BAS20140924+00000000+                                    19940405+Imt Silverarvet Viktor                          19800411+0000000000000+0000+22228300000000000+ 00000000+01419800411+ 00000000+120050314+     00000000+    00000000+41910BAS20140429+ 20140929+234719+HFR BAS 0001+0001+ACME1IMTSILVERA000000+ 200000000+  20050314+000000+
05598861226+Stjärnorps El Anders AB                                                 LUNNARP 2                   34013+HAMNEDA                  SE0000+00000000+PRV20140701+PRV20140701+BAS20140610+00000000+                                    20140603+Stjärnorps El Anders AB                         20140603+0000000050000+0000+14149100000000000+ 00000000+00420140616+ 00000000+120140922+     00000000+    00000000+   49BAS20140922+ 20140922+234904+PRV BAS 0001+0001+ACME6STJÄRNORPS000000+ 200000000+  20140922+000000+
08950311640+V2Dot0 O Svensk                                                         LUDENSBOGATAN 100           38540+BERGKVARA                SE0076+07676894+BAS20100922+BAS20140311+BAS20150121+00000000+                                    20100616+V2Dot0 O Svensk                                 20100501+0000000000000+0000+14144600000000000+ 00000000+00420100616+ 00000000+100000000+     00000000+    00000000+41910BAS20140318+ 20150126+234810+BAS BAS 0001+0001+ACME8V2DOT0OSVE000000+ 400000000+  20100616+000000+
09821563419+Aurum Group Eklöw                                                       FÅGLAVIK AMUNDEHULT 2       52492+HERRLJUNGA               SE0000+00000000+BAS00000000+BAS20140819+   00000000+00000000+                                    20140825+Aurum Group Eklöw                               20140814+0000000000000+0000+20206200000000000+ 00000000+00420140825+ 00000000+100000000+     00000000+    00000000+41910BAS20140825+ 20140825+234742+BAS BAS 0001+0001+ACME3AURUMGROUP000000+ 400000000+  20140825+000000+
06233180071+Helge HB Rungaroon                  Helge HB Rungaroon                  TOMTEBYHOLM 755             39591+KALMAR                   SE0000+00000000+BAS00000000+BAS20120904+BAS20100217+00000000+                                    19990813+Helge HB Rungaroon                              19990701+0000000000000+0000+12128100000000000+ 00000000+00419990813+ 00000000+920001110+     00000000+    00000000+41910BAS20120910+ 20120910+235840+BAS BAS 0001+0000+ACME1HELGEHBRUN000000+ G20000913+ 820001110+000000+
04102561513+Svensson Expresskem &                                                   DICKSONSGATAN 1             41256+GÖTEBORG                 SE0000+00000000+BAS00000000+BAS20060311+BAS20070205+00000000+                                    20060423+Svensson Expresskem &                           20060401+0000000000000+0000+03038000000000000+ 00000000+00420060423+ 00000000+100000000+     00000000+    00000000+41910BAS20060423+ 20070314+234800+BAS BAS 0001+0001+ACME9SVENSSONEX000000+ 100000000+  20060423+000000+
05461567124+Olof Bra Pia's AB                                                       HÖRLYCKAN 42                43973+FJÄRÅS                   SE0708+00576497+PRV00000000+PNR20121205+BAS20090220+00000000+                                    20090215+Olof Bra Pia's AB                               20090213+0000000100000+0000+10108000000000000+ 00000000+00420120820+ 00000000+920110411+NKUÖ 20120803+KK  20110330+   49BAS20120820+ 20120820+235557+PRV BAS 0001+0000+ACME2OLOFBRAPIA201006+ I20110330+ 820120820+000000+
03605546070+HB Allt Brattfors                                                       MUNINGATAN 2                19552+MÄRSTA                   SE0470+00091088+BAS20150427+PNR20130306+BAS20121025+00000000+                                    00000000+HB Allt Brattfors                               19830901+0000000000000+0000+07078000000000000+ 00000000+00419860215+ 00000000+119880330+     00000000+    00000000+41910BAS20120813+ 20150427+234907+HFR BAS 0001+0001+ACME1HBALLTBRAT000000+ 419930101+  19960211+000000+
05580188331+Jan-Erik Slu Nynäshamns AB                                              KLOCKLJUNGSVÄGEN 5          98235+GÄLLIVARE                SE0000+00000000+PRV20140823+BAS20150117+BAS20131210+00000000+                                    20131206+Jan-Erik Slu Nynäshamns AB                      20131206+0000000050000+0000+01018000000000000+ 00000000+09420131216+ 00000000+020131216+     00000000+    00000000+   49PRV20140825+ 20140908+234840+PRV BAS 0001+0000+ACME3JAN-ERIKSL000000+  00000000+ 720131206+000000+
09712393793+Martinsson Roie Leg HB                                                  KRUBBEMÖLLA 11              27736+VITABY                   SE0226+00000000+SOL19800401+BAS20040514+SOL19910501+00000000+                                    19831031+Martinsson Roie Leg HB                          19800401+0000000000000+0000+20208400000000000+ 00000000+00419851116+ 00000000+920050227+     00000000+    00000000+21931BAS20050227+ 20050227+235437+KONVBAS 0001+0000+ACME6MARTINSSON000000+ 100000000+ 720050227+000000+
06497764800+Gudrun Bergman Norden                                                   MAGASINSGATAN 3             57162+BODAFORS                 SE0031+00132228+BAS19970924+BAS20110222+BAS20070728+00000000+                                    19921209+Gudrun Bergman Norden                           19921101+0000000000000+0000+14148000000000000+ 00000000+00419921209+ 00000000+920150112+     00000000+    00000000+41910BAS20150112+ 20150112+235026+HFR BAS 0001+0000+ACME7GUDRUNBERG000000+ G20141222+ 820150112+000000+
08578502612+Gunnerus Festservice Hästservice                                        FLENSTAD FREDRIKSLUND 2     54792+GULLSPÅNG                SE0000+00000000+BAS00000000+BAS20140527+   00000000+00000000+                                    20120528+Gunnerus Festservice Hästservice                20120517+0000000000000+0000+25258000000000000+ 00000000+00420120528+ 00000000+100000000+     00000000+    00000000+41910BAS20140602+ 20140602+000203+BAS BAS 0001+0001+ACME8GUNNERUSFE000000+ 100000000+  20120528+000000+
05350318274+Tomas Wallén Eva-Lena AB                                                ODENS VÄG 4                 26937+BÅSTAD                   SE0122+00012590+PRV20140414+PRV20100524+BAS20100814+00000000+                                    20100525+Tomas Wallén Eva-Lena AB                        20100524+0000000100000+0000+05056200000000000+ 00000000+00420100609+ 00000000+120100922+N    00000000+    00000000+   49BAS20100922+ 20140414+235309+PRV PRV 0001+0001+ACME9TOMASWALLÉ201312+ 100000000+  20100922+000000+
08782514635+Stockholm Partner Pasta                                                 RUD SOLTORPET               66194+SÄFFLE                   SE0325+00000000+SOL19890501+BAS20150117+SOL19890630+00000000+                                    19890630+Stockholm Partner Pasta                         19890501+0000000000000+0000+14146500000000000+ 00000000+09419890630+ 00000000+019890630+     00000000+    00000000+   61BAS19980112+ 20061109+234800+KONVBAS 0001+0000+ACME0STOCKHOLMP000000+ 300000000+  19960211+000000+
05093444775+C Protetor Fastighets AB                                                TORNSLINGAN 2               82595+ENÅNGER                  SE0000+00000000+PRV20150220+PRV20150220+BAS20150127+00000000+                                    20150119+C Protetor Fastighets AB                        20150119+0000000050000+0000+14148600000000000+ 00000000+09420150202+ 00000000+020150202+     00000000+    00000000+   49PRV20150220+ 20150220+234516+PRV PRV 0001+0000+ACME9CPROTETORF000000+  00000000+ 720150119+000000+
04796717330+Puntadeuian Hårstudio Axenhus                                           SPIKSTUGAN 2                79392+LEKSAND                  SE0451+00018524+BAS19830901+BAS19970321+SOL19890110+00000000+                                    19831031+Puntadeuian Hårstudio Axenhus                   19830901+0000000000000+0000+12129300000000000+ 00000000+00419851116+ 00000000+119890110+     00000000+    00000000+41910BAS20001104+ 20001104+185854+KONVBAS 0001+0001+ACME9PUNTADEUIA000000+ 219930101+  19960211+000000+
06472081576+Firma Ljb Andersson                                                     EDSVIKSVÄGEN 86             18239+DANDERYD                 SE0121+00161000+BAS00000000+BAS20140805+BAS20140805+00000000+                                    20140811+Firma Ljb Andersson                             20140731+0000000000000+0000+05058200000000000+ 00000000+00420140811+ 00000000+100000000+     00000000+    00000000+41910BAS20140811+ 20140811+234710+BAS BAS 0001+0001+ACME8FIRMALJBAN000000+ 400000000+  20140811+000000+
05965349292+Olof Eurotema Birdeye AB                                                FULLMÅNEN 17                24538+STAFFANSTORP             SE0000+00000000+PRV00000000+PRV20141110+BAS20141118+00000000+                                    20141110+Olof Eurotema Birdeye AB                        20141110+0000000050000+0000+14140700000000000+ 00000000+09420141124+ 00000000+020141124+     00000000+    00000000+   49BAS20141124+ 20141124+234903+PRV BAS 0001+0000+ACME7OLOFEUROTE000000+  00000000+ 720141110+000000+
05120448641+Erik 1 Thunberg                                                         KYRKVÄGEN 33                84060+BRÄCKE                   SE0515+00046031+BAS19830901+BAS20021229+BAS19950109+00000000+                                    19831031+Erik 1 Thunberg                                 19830901+0000000000000+0000+14149900000000000+ 00000000+00419860215+ 00000000+119901115+     00000000+    00000000+41910BAS20001105+ 20030219+235709+KONVBAS 0001+0001+ACME5ERIK1THUNB000000+ 400000000+  19960211+000000+
05311867096+Towr Buss Zervice AB                Towr Buss Zervice AB                SUNNERSBERG VÄSTERLUND 1    53198+LIDKÖPING                SE0008+00226611+PRV20130510+PRV20131101+BAS20071111+00000000+                                    20070806+Towr Buss Zervice AB                            20070803+0000000100000+0000+01018000000000000+ 00000000+00420070822+ 00000000+920150406+NKK  20150312+    00000000+   49BAS20150406+ 20150406+234647+PRV BAS 0001+0000+ACME4TOWRBUSSZE201212+ I20140912+ 720150406+000000+
08499530114+Kompetenshamnen Posten Karlsson                                         BOCKABODA STENSJÖHOLM 2     34177+AGUNNARYD                SE0008+06526680+BAS00000000+BAS20080226+BAS20030329+00000000+                                    20030210+Kompetenshamnen Posten Karlsson                 20030201+0000000000000+0000+01016300000000000+ 00000000+00420030305+ 00000000+920110117+     00000000+    00000000+41910BAS20110117+ 20110117+000307+HFR BAS 0001+0000+ACME9KOMPETENSH000000+ G20101227+ 820110117+000000+
05984411818+Inge Topp KB AB                                                         ÄSPINGE BJÖRKAGÅRDEN        24194+HURVA                    SE0008+52059000+PRV19901017+PRV20101018+BAS20011203+00000000+                                    00000000+Inge Topp KB AB                                 19491026+0000004680000+0000+01018000000000000+ 00000000+38419860215+ 00000000+119910403+N    00000000+    00000000+   49BAS20101212+ 20111220+001436+KONVBAS 0092+0055+ACME4INGETOPPKB201406+ 219930101+  20041013+000000+
07232983036+O Knuts Stockholm                                                       GAMMELGÅRDSVÄGEN 12         36044+INGELSTAD                SE0303+00013111+BAS20071024+BAS20050905+BAS20130617+00000000+                                    20011023+O Knuts Stockholm                               20011001+0000000000000+0000+14148200000000000+ 00000000+00420011115+ 00000000+120020207+     00000000+    00000000+41910BAS20150420+ 20150420+234746+HFR BAS 0001+0001+ACME2OKNUTSSTOC000000+ 200000000+  20020207+000000+
05227203352+Folkpartiet Uppsala Gullers AB                                          LOSTIGEN 1                  17075+SOLNA                    SE0000+00000000+PRV20040716+PRV20131118+   00000000+00000000+                                    19970506+Folkpartiet Uppsala Gullers AB                  19970428+0000000100000+0000+19198100000000000+ 00000000+00419970603+ 00000000+120080206+N    00000000+    00000000+   49PRV20131118+ 20131118+235331+PRV PRV 0001+0001+ACME4FOLKPARTIE201412+ 100000000+  20080206+000000+
07009465159+i Media Fören                                                           BERNSBORGSSTIGEN 18         72218+VÄSTERÅS                 SE0000+00000000+BAS00000000+BAS20140610+   00000000+00000000+                                    20140616+i Media Fören                                   20140605+0000000000000+0000+06061700000000000+ 00000000+00420140616+ 00000000+100000000+     00000000+    00000000+41910BAS20140616+ 20140616+234907+BAS BAS 0001+0001+ACME4IMEDIAFÖRE000000+ 100000000+  20140616+000000+
05448564152+Kiruna Stödfören Agentur AB                                             ABBORREMÅLAVÄGEN 19         37012+HALLABRO                 SE0010+02124000+PRV19990819+PRV20100309+BAS20141108+00000000+                                    00000000+Kiruna Stödfören Agentur AB                     19310116+0000000500000+0000+01018000000000000+ 00000000+48419851116+ 00000000+119910918+N    00000000+    00000000+   49BAS20110918+ 20141112+234528+KONVBAS 0229+0097+ACME4KIRUNASTÖD201406+ 219930101+  19990825+000000+
06647338331+Börje Åkeri Dimple                                                      MARTORP EKO-CENTRUM 1       45891+FÄRGELANDA               SE0530+00042046+BAS00000000+BAS20030830+BAS20090809+00000000+                                    19961217+Börje Åkeri Dimple                              19961101+0000000000000+0000+14146100000000000+ 00000000+00419961217+ 00000000+100000000+     00000000+    00000000+41910BAS20001105+ 20090916+234814+BAS BAS 0001+0001+ACME9BÖRJEÅKERI000000+ 100000000+  19961217+000000+
06195818932+Christer Golv Gem                                                       HARSTAD LYCKHEM 1           58563+LINGHEM                  SE0530+00042046+BAS00000000+BAS20030830+BAS20101226+00000000+                                    19961217+Christer Golv Gem                               19961101+0000000000000+0000+14146100000000000+ 00000000+00419961217+ 00000000+100000000+     00000000+    00000000+41910BAS20001105+ 20110131+235714+BAS BAS 0001+0001+ACME0CHRISTERGO000000+ 100000000+  19961217+000000+
06406543865+Larsson J HB                                                            BRODDAGÅRDSVÄGEN 15         34196+LJUNGBY                  SE0000+00000000+BAS00000000+BAS20070408+BAS20100217+00000000+                                    20060419+Larsson J HB                                    20060401+0000000000000+0000+12121400000000000+ 00000000+09420060504+ 00000000+020060504+     00000000+    00000000+41910BAS20060504+ 20100324+235032+HFR BAS 0001+0000+ACME7LARSSONJHB000000+ G20000204+ 820060504+000000+
06570190345+Nfts Konsult Rickbid                                                    PILDAMMSVÄGEN 5             26293+ÄNGELHOLM                SE0008+06122070+BAS00000000+BAS20070422+BAS20090512+00000000+                                    20070516+Nfts Konsult Rickbid                            20070501+0000000000000+0000+01018200000000000+ 00000000+00420070530+ 00000000+120090611+     00000000+    00000000+41910BAS20090611+ 20090617+234931+HFR BAS 0001+0001+ACME8NFTSKONSUL000000+ 400000000+  20090611+000000+
04931938635+Sundsvall Fönsterputs Consulting                                        HÄGGESLED STOMMEN 1         53194+JÄRPÅS                   SE0000+00000000+BAS00000000+BAS20110222+   00000000+00000000+                                    19940215+Sundsvall Fönsterputs Consulting                19811221+0000000000000+0000+01018600000000000+ 00000000+00419811221+ 00000000+000000000+     00000000+    00000000+41910BAS20001104+ 20110328+235533+HFR BAS 0001+0000+ACME1SUNDSVALLF000000+  00000000+ 820001202+000000+
06252355893+Älgöhöjden Nilssons Conditori                                           ÅSVÄGEN 9                   18330+TÄBY                     SE0240+00651156+BAS00000000+BAS20040228+BAS19970906+00000000+                                    19930513+Älgöhöjden Nilssons Conditori                   19930401+0000000000000+0000+20206100000000000+ 00000000+00419930513+ 00000000+100000000+     00000000+    00000000+41910BAS20001105+ 20040414+235304+HFR BAS 0001+0001+ACME9ÄLGÖHÖJDEN000000+ 419930428+  19960211+000000+
06256510493+Fastighet Måleri Triggma                                                HISSGATAN 6                 53140+LIDKÖPING                SE0013+00163444+BAS20110607+BAS20141202+BAS20100822+00000000+                                    20090416+Fastighet Måleri Triggma                        20090401+0000000000000+0000+05058200000000000+ 00000000+00420090429+ 00000000+120090527+     00000000+    00000000+41910BAS20141208+ 20141208+234726+HFR BAS 0001+0001+ACME3FASTIGHETM000000+ 400000000+  20090527+000000+
06226561253+Ingvar Sweden Vallin                                                    SYLTVIK BÄCKFALL 2          61591+VALDEMARSVIK             SE0008+00384786+BAS00000000+BAS20141007+BAS20130924+00000000+                                    20130917+Ingvar Sweden Vallin                            20130905+0000000000000+0000+05058000000000000+ 00000000+00420141202+ 00000000+920141202+     00000000+    00000000+41910BAS20141202+ 20141202+234809+BAS BAS 0001+0000+ACME8INGVARSWED000000+ G20141117+ 820141202+000000+
07894460141+Ankan Jerica Kristina               Ankan Jerica Kristina               HALLÅSVÄGEN 4               68594+TORSBY                   SE0000+00000000+BAS20100609+BAS20110424+   00000000+00000000+                                    20100523+Ankan Jerica Kristina                           20100401+0000000000000+0000+23236100000000000+ 00000000+09420100523+ 00000000+000000000+     00000000+    00000000+41910BAS20110530+ 20110530+235224+BAS BAS 0001+0000+ACME3ANKANJERIC000000+  00000000+ 820100523+000000+
07623598799+Lärjungen HB Jamie                                                      BLÅELDSVÄGEN 6              23635+HÖLLVIKEN                SE0031+00202572+BAS20150629+BAS20100807+BAS20040522+00000000+                                    20040405+Lärjungen HB Jamie                              20040401+0000000000000+0000+23236100000000000+ 00000000+00420150629+ 00000000+920140113+     00000000+    00000000+41910BAS20150629+ 20150629+234640+HFR BAS 0001+0000+ACME4LÄRJUNGENH000000+ P20131230+ 820140113+000000+
06261468547+Helsingborg systrars Adam                                               BJÖRNÖBODARNA 110           84050+GÄLLÖ                    SE0221+00055055+BAS00000000+PNR20110409+BAS20111217+00000000+                                    20060706+Helsingborg systrars Adam                       20060601+0000000000000+0000+19198300000000000+ 00000000+00420100602+ 00000000+120110614+     00000000+    00000000+41910BAS20110614+ 20120123+000310+BAS BAS 0001+0001+ACME9HELSINGBOR000000+ 100000000+  20110614+000000+
05566459755+Design På Sock                                                          FJÄLLGRÖNAN 5               42449+ANGERED                  SE0498+00053052+BAS00000000+PNR20060709+BON20051202+00000000+                                    19961217+Design På Sock                                  19961101+0000000000000+0000+09098000000000000+ 00000000+00419961217+ 00000000+100000000+     00000000+    00000000+41910BAS20001105+ 20051211+235035+BAS BAS 0001+0001+ACME4DESIGNPÅSO000000+ 100000000+  19961217+000000+
07339994241+Guldbrand Amalia Lars                                                   STORÄNGSSTIGEN 6            18274+STOCKSUND                SE0000+00000000+BAS00000000+BAS20070704+BAS20070704+00000000+                                    20070717+Guldbrand Amalia Lars                           20070801+0000000000000+0000+22228100000000000+ 00000000+00420070808+ 00000000+920120430+     00000000+    00000000+41910BAS20120430+ 20120430+235522+HFR BAS 0001+0000+ACME6GULDBRANDA000000+ E20120416+ 820120430+000000+
08369186765+Fredriksson Arbetsboksmetoden Bygg                                      TRUNNERUP 106               27462+RYDSGÅRD                 SE0000+00000000+BAS20100922+BAS20110222+   00000000+00000000+                                    20100722+Fredriksson Arbetsboksmetoden Bygg              20100708+0000000000000+0000+01018000000000000+ 00000000+00420100722+ 00000000+100000000+     00000000+    00000000+41910BAS20100722+ 20110328+235518+BAS BAS 0001+0001+ACME0FREDRIKSSO000000+ 200000000+  20100722+000000+
05046645148+Brf Gustavsson Bengtssons                                               VÄSTRA RADIOGATAN 13        85461+SUNDSVALL                SE0000+00000000+BAS19860501+BAS20020922+BAS20100307+00000000+                                    19860501+Brf Gustavsson Bengtssons                       19860501+0000000000000+0000+04048400000000000+ 00000000+00419860916+ 00000000+120050410+     00000000+    00000000+41910BAS20050410+ 20100414+234837+HFR BAS 0001+0001+ACME6BRFGUSTAVS000000+ 400000000+  20050410+000000+
05272052472+Axn Samfällighetsfören Johansson                                        HJÄLTARYD FURUSKOG 1        57013+MYRESJÖ                  SE0159+00031233+BAS19940101+BAS20090921+BAS20090118+00000000+                                    19860215+Axn Samfällighetsfören Johansson                19940101+0000000000000+0000+04048600000000000+ 00000000+00419940215+ 00000000+119910206+     00000000+    00000000+41910BAS20001105+ 20091028+234731+KONVBAS 0001+0001+ACME0AXNSAMFÄLL000000+ 200000000+  19960211+000000+
05797445581+Manhattan Commradio Reklambyrå                                          GÄREGATAN 14                54330+TIBRO                    SE0159+00030085+BAS19940101+BAS20090921+BAS20090212+00000000+                                    19831031+Manhattan Commradio Reklambyrå                  19940101+0000000000000+0000+04048600000000000+ 00000000+00419940215+ 00000000+119910206+     00000000+    00000000+41910BAS20001104+ 20091028+234723+KONVBAS 0001+0001+ACME0MANHATTANC000000+ 400000000+  19960211+000000+
04735794978+Oskarsson Bror Ab:S                                                     TROLLESUND ÖSTRA FLYGELN 1  61191+NYKÖPING                 SE0008+00941070+BAS19850601+BAS20021007+SOL19910205+00000000+                                    19840812+Oskarsson Bror Ab:S                             19850601+0000000000000+0000+01018000000000000+ 00000000+00419860215+ 00000000+119910205+     00000000+    00000000+41910BAS20001104+ 20021127+235914+HFR BAS 0001+0001+ACME6OSKARSSONB000000+ 419950828+  19960215+000000+
06225365110+SHT Mrmadhawk G                                                         STORKOMMUNVÄGEN 3           62341+HAVDHEM                  SE0000+00000000+BAS20100609+BAS20130319+BAS20100217+00000000+                                    20000309+SHT Mrmadhawk G                                 20000202+0000000000000+0000+14144300000000000+ 00000000+00420000406+ 00000000+920140707+     00000000+    00000000+41910BAS20140707+ 20140707+234730+HFR BAS 0002+0000+ACME4SHTMRMADHA000000+ E20140619+ 820140707+000000+
06811332003+Svensk Ef Marcato                                                       JASMINVÄGEN 2               24747+FLYINGE                  SE0456+00019808+BAS00000000+BAS20121127+BAS20121219+00000000+                                    20121203+Svensk Ef Marcato                               20121122+0000000000000+0000+10108300000000000+ 00000000+00420121203+ 00000000+100000000+     00000000+    00000000+41910BAS20121203+ 20121224+235042+BAS BAS 0001+0001+ACME7SVENSKEFMA000000+ 400000000+  20121203+000000+
06839562383+Salong i LUNA                                                           ÅLIDEN 15                   93591+NORSJÖ                   SE0000+00000000+BAS20120430+BAS20120411+   00000000+00000000+                                    20120416+Salong i LUNA                                   20120406+0000000000000+0000+10108000000000000+ 00000000+00420120416+ 00000000+100000000+     00000000+    00000000+41910BAS20120416+ 20120430+235132+BAS BAS 0001+0001+ACME6SALONGILUN000000+ 400000000+  20120416+000000+
05423232536+Harry Donationsfonden N                                                 NORRA KÄLLÅSVÄGEN 75        42835+KÅLLERED                 SE0122+00010988+BAS00000000+BAS20040504+BAS19960129+00000000+                                    00000000+Harry Donationsfonden N                         19940101+0000000000000+0000+05056200000000000+ 00000000+00419940215+ 00000000+119910206+     00000000+    00000000+41910BAS20001105+ 20040617+004019+HFR BAS 0001+0001+ACME4HARRYDONAT000000+ 400000000+  19960211+000000+
06075829637+Venca Emils Einarsson                                                   VÅRVÄGEN 1                  64233+FLEN                     SE0000+00000000+BAS00000000+BAS20050215+   00000000+00000000+                                    20010307+Venca Emils Einarsson                           20010101+0000000000000+0000+05058400000000000+ 00000000+00420100523+ 00000000+120100523+     00000000+    00000000+41910BAS20100523+ 20100523+174057+BAS BAS 0002+0001+ACME4VENCAEMILS000000+ 419930101+  20100523+000000+
05837309813+Sven Multiform Esbjörnsson                                              KORNALYCKE MARIELUND        36292+TINGSRYD                 SE0380+00080180+BAS19940101+BAS20150630+BAS20030914+00000000+                                    19870306+Sven Multiform Esbjörnsson                      19940101+0000000000000+0000+06060400000000000+ 00000000+01419940215+ 00000000+119910206+     00000000+    00000000+41910BAS20150706+ 20150706+234607+KONVBAS 0001+0001+ACME7SVENMULTIF000000+ 400000000+  19960211+000000+
08553440143+Karlstad Junior Undertow                                                BÄCKEDALEN 2                69591+LAXÅ                     SE0000+00000000+BAS00000000+BAS20130806+   00000000+00000000+                                    20130311+Karlstad Junior Undertow                        20130228+0000000000000+0000+06068700000000000+ 00000000+00420130311+ 00000000+100000000+     00000000+    00000000+41910BAS20130311+ 20130812+235515+BAS BAS 0001+0001+ACME9KARLSTADJU000000+ 400000000+  20130311+000000+
06900977353+Maria Göran Plantfactory                                                MUSEIVÄGEN 12               46472+HÅVERUD                  SE0390+00010878+BAS00000000+BAS20091101+BAS20110329+00000000+                                    20011101+Maria Göran Plantfactory                        20011001+0000000000000+0000+06068000000000000+ 00000000+00420011101+ 00000000+100000000+     00000000+    00000000+41910BAS20011101+ 20110504+235320+BAS BAS 0001+0001+ACME7MARIAGÖRAN000000+ 400000000+  20011101+000000+
06215014090+Halvarsson Solucion bygg                                                ROTVÄGEN 37                 83173+ÖSTERSUND                SE0000+00000000+BAS00000000+BAS20080420+BAS20100216+00000000+                                    19961104+Halvarsson Solucion bygg                        19961101+0000000000000+0000+01018000000000000+ 00000000+00419961021+ 00000000+920080305+     00000000+    00000000+41910BAS20080305+ 20100324+235008+HFR BAS 0001+0000+ACME9HALVARSSON000000+ G20080220+ 820080305+000000+
05362325085+de Ridings Funäsdalen AB                                                MELLANBERGSVÄGEN 17         14652+TULLINGE                 SE0008+00238750+PRV20140306+PRV19971120+SOL19861006+00000000+                                    00000000+de Ridings Funäsdalen AB                        19590525+0000000500000+0000+01018000000000000+ 00000000+04419860215+ 00000000+119861006+N    00000000+    00000000+   49PRV19920820+ 20140306+235316+KONVPRV 0002+0001+ACME6DERIDINGSF201312+ 200000000+  20100131+000000+
05215064162+& Lassons Ata                                                           DOMKYRKAN 1                 72213+VÄSTERÅS                 SE0417+00026119+BAS00000000+BAS20110716+BAS20090118+00000000+                                    19961217+& Lassons Ata                                   19961101+0000000000000+0000+01018000000000000+ 00000000+00419961217+ 00000000+100000000+     00000000+    00000000+41910BAS20061221+ 20110822+235949+BAS BAS 0001+0001+ACME4&LASSONSAT000000+  00000000+  19961217+000000+
05945440278+Madeleine Niklas Hjalmar AB                                             NYÄNGSVÄGEN 49              16754+BROMMA                   SE0040+06142509+PRV20110121+BAS20140311+BAS20031018+00000000+                                    19911230+Madeleine Niklas Hjalmar AB                     19911220+0000000600000+0000+01018000000000000+ 00000000+01419940830+ 00000000+100000000+N    00000000+    00000000+   49BAS20120423+ 20140318+000640+PRV BAS 0001+0001+ACME1MADELEINEN201408+ 219930101+  19960211+000000+
05448910645+Sandvi Pi B                                                             SÄTRA LINDHAGA 2            58965+BESTORP                  SE0486+00030353+BAS00000000+BAS20130806+BAS20131121+00000000+                                    19961217+Sandvi Pi B                                     19961101+0000000000000+0000+12128000000000000+ 00000000+00419961217+ 00000000+100000000+     00000000+    00000000+41910BAS20130812+ 20131125+235251+BAS BAS 0001+0001+ACME7SANDVIPIB 000000+ 100000000+  19961217+000000+
06442510738+Rickard Sweden Therese                                                  FARSHULT 163                57072+FAGERHULT                SE0000+00000000+BAS00000000+BAS20050710+   00000000+00000000+                                    19961217+Rickard Sweden Therese                          19961101+0000000000000+0000+01016200000000000+ 00000000+00419961217+ 00000000+100000000+     00000000+    00000000+41910BAS20010501+ 20050821+235824+BAS BAS 0001+0001+ACME8RICKARDSWE000000+ 100000000+  19961217+000000+
04398716920+Gat Utveckling Yernst                                                   EGNAHEMSVÄGEN 1             71492+KOPPARBERG               SE0070+06401253+BAS00000000+BAS20130723+BAS20120215+00000000+                                    20111117+Gat Utveckling Yernst                           20111117+0000000000000+0000+01018800000000000+ 00000000+00420111128+ 00000000+120111128+     00000000+    00000000+41910BAS20111128+ 20130729+235845+HFR BAS 0001+0001+ACME0GATUTVECKL000000+ 400000000+  20111128+000000+
